:100000000C9464000C9481000C9481000C94A90B56
:100010000C9481000C94E10B0C9481000C948100F1
:100020000C9481000C9481000C9481000C94190CA8
:100030000C9481000C9481000C9481000C9481003C
:100040000C9481000C9481000C9481000C9481002C
:100050000C9481000C9415040C9481000C94810084
:100060000C9461050C94810057065E0665067206C5
:10007000CF06DD06E906F606020707071307C907DC
:1000800018070511980E940EFB0F920F500FEF10EA
:10009000EF100511980EA21066100511980E940E1F
:1000A000FB0F920F500FEF10EF100511980EA210DA
:1000B0006610C4118712F0114A128712F0114A1209
:1000C0008712C411F0114A1211241FBECFEFD8E0DD
:1000D000DEBFCDBF11E0A0E0B1E0E6ECFBE202C084
:1000E00005900D92AC35B107D9F722E0ACE5B1E04F
:1000F00001C01D92A039B207E1F70E94E8080C94F4
:10010000E1150C940000E1E1F2E010821182089503
:10011000AC0180910001909101018417950760F076
:10012000E2E0F1E091E0219131912417350728F0C8
:100130009F5F9832C1F701C090E09093110208953B
:10014000AC0180910001909101018417950760F046
:10015000E2E0F1E091E0219131912417350728F098
:100160009F5F9832C1F701C090E09093120208950A
:10017000BC0180E090E00E94611460936001709384
:100180006101809362019093630110925C0110926F
:100190005D0110925E0110925F0108952F923F92CF
:1001A0004F925F926F927F928F929F92AF92BF9287
:1001B000CF92DF92EF92FF920F931F93CF93DF9333
:1001C000CDB7DEB72C970FB6F894DEBF0FBECDBF0C
:1001D00029873A874B875C87681B790B072E000CB1
:1001E000880B990B0E94631469837A838B839C83A9
:1001F00029A13AA14BA15CA10E941815A801970161
:100200000E941815209160013091610140916201B6
:10021000509163010E944813E62EF72E982E892EE6
:100220002DA13EA1B901330F880B990B0E946314D5
:10023000462E572E682E792E262F372F482F592FCE
:100240006E2D7F2D892D982D0E94B4138823ECF0FC
:10025000AFA1B8A5BD01BB0F880B990B0E94631419
:10026000162F072F382E292E262F372F482F592F9C
:100270006E2D7F2D892D982D0E94131518164CF088
:100280001E2D0F2D392C282C04C0142D052D362C95
:10029000272C812F902FA32DB22D80936001909356
:1002A0006101A0936201B093630120915C013091E0
:1002B0005D0140915E0150915F0169817A818B817E
:1002C0009C810E94471329A13AA14BA15CA10E94E5
:1002D000B9136D837E838F83988789819A81AB81DF
:1002E000BC8180935C0190935D01A0935E01B0930B
:1002F0005F0129853A854B855C85BC01CD010E9453
:100300001815212F302F432D522D0E944813698339
:100310007A838B839C83A60195016D817E818F8179
:1003200098850E9418159B01AC0169817A818B81A7
:100330009C810E9448136B017C019B01AC01642DE0
:10034000752D862D972D0E9413151816BCF0AFA1A0
:10035000B8A5BD01BB0F880B990B0E9463149B01CC
:10036000AC01C701B6010E941315181654F0C7015D
:10037000B6010E942B14262F972F05C02DA19EA1F8
:1003800002C02FA198A5822F2C960FB6F894DEBF3D
:100390000FBECDBFDF91CF911F910F91FF90EF90D6
:1003A000DF90CF90BF90AF909F908F907F906F9095
:1003B0005F904F903F902F90089560E070E03AE09A
:1003C00023C0FA01E80FF91F20832F5F01968930BF
:1003D0009105B9F7375F6F5F7F4F3E32A9F4E4E6CE
:1003E000F1E088EC808389EC81838AEC82838BEC5A
:1003F00083838CEC84838DEC85838EEC86838FECF9
:10040000878380ED80870895232F80E090E0AB0103
:10041000440F551F440F551F440F551F460F571FBC
:1004200043595E4FCECFF999FECF90E092BD81BD8A
:1004300060BDFA9AF99A089590E0FC01EE0FFF1F53
:10044000EE0FFF1FEE0FFF1FE80FF91FE60FF11D64
:10045000E75AFE4F8081642F0E9413020E94C90A4E
:10046000089590E0FC01EE0FFF1FE80FF91FE60F63
:10047000F11DE25AFE4F8081642F0E9413020E94F8
:100480003B110895F999FECF90E092BD81BDF89A95
:1004900080B50895CF93C62F90E0FC01EE0FFF1FAB
:1004A000EE0FFF1FEE0FFF1FE80FF91FE359FE4F7E
:1004B000E60FF11D80810E944202C83031F098EDB4
:1004C000980F973D38F086E905C09FEF980F94315B
:1004D00008F085E0CF91089590E0FC01EE0FFF1F3A
:1004E000E80FF91FEC59FE4FE60FF11D80810E94C5
:1004F00042020895E5E4F2E0118210821282138232
:10050000158214821682178211861086128613862F
:100510001586148616861786118A108A128A138AFF
:10052000158A148A168A178AEAE7F0E080818068C3
:1005300080838081816080838081826080838081EC
:100540008B7F8083ACE7B0E08C9180648C938C913E
:100550008F778C93808188608083089524E0829FC8
:10056000C0011124FC01EB5BFD4F81E08383089502
:10057000823061F128F4882359F08130C1F0089568
:10058000843009F441C088F1853009F44CC00895E5
:10059000ECE7F0E080818E7F808380818D7F808397
:1005A00080818B7F80838081877F80830895ECE7C3
:1005B000F0E080818160808380818260808380819F
:1005C000846080838081877F80830895ECE7F0E0FA
:1005D00080818E7F8083808182608083808184603F
:1005E00080838081877F80830895ECE7F0E08081BD
:1005F0008160808380818D7F808380818B7F8083F9
:100600008081877F80830895ECE7F0E080818160BE
:10061000808380818260808380818B7F80838081E2
:10062000877F80830895ECE7F0E080818E7F808370
:1006300080818260808380818B7F80838081877FBF
:1006400080830895CF93DF93E0919101F0E0EE0F66
:10065000FF1FEE0FFF1FEB5BFD4F8381813021F504
:10066000E0919101F0E0EE0FFF1FEE0FFF1FEB5B3B
:10067000FD4F8281882361F0E0919101F0E0EE0F5F
:10068000FF1FEE0FFF1FEB5BFD4F8281843061F493
:10069000E0919101F0E0EE0FFF1FEE0FFF1FEB5B0B
:1006A000FD4F81E08283BEC0E0919101F0E0EE0F4A
:1006B000FF1FEE0FFF1FEB5BFD4F8281882361F070
:1006C000E0919101F0E0EE0FFF1FEE0FFF1FEB5BDB
:1006D000FD4F8281843069F4809191018F5F809316
:1006E000910180919101863008F49CC01092910193
:1006F00099C0E0919101F0E0EE0FFF1FEE0FFF1F98
:10070000EB5BFD4F8281813001F5809191010E9468
:10071000B802EAE7F0E0808180648083E091910193
:10072000F0E0EE0FFF1FEE0FFF1FEB5BFD4F82E0CF
:100730008283E0919101F0E0EE0FFF1FEE0FFF1FAB
:10074000EB5BFD4F118210826DC0E0919101F0E0F2
:10075000EE0FFF1FEE0FFF1FEB5BFD4F828182301C
:1007600009F460C0E0919101F0E0EE0FFF1FEE0F81
:10077000FF1FEB5BFD4F8281833009F053C08091F6
:100780009101813059F4C5E4D2E08C819D810E94B1
:100790008F098C819D810E9488002EC0823039F49F
:1007A00080914D0290914E020E94A00025C084309D
:1007B00091F48091550290915602ECE2F2E0978319
:1007C000868380858130C1F480912E02811114C00E
:1007D0000E94A41111C0833039F48091510290918C
:1007E00052020E944B0808C0853031F480915902B2
:1007F00090915A020E94C708E0919101F0E0EE0F3B
:10080000FF1FEE0FFF1FEB5BFD4F84E082838091A3
:1008100091018F5F8093910180919101863010F05A
:1008200010929101DF91CF9108951F920F920FB610
:100830000F9211248F939F93EF93FF93E091910177
:10084000F0E08091780090917900EE0FFF1FEE0F9D
:10085000FF1FEB5BFD4F91838083E0919101F0E0FE
:10086000EE0FFF1FEE0FFF1FEB5BFD4F83E0828358
:10087000EAE7F0E080818F7E8083FF91EF919F9186
:100880008F910F900FBE0F901F90189548E050E089
:100890006EE270E08CE192E00E949A158CE4809305
:1008A000BA0085EC8093BC00ECEBF0E080818823FB
:1008B000ECF70895CF93DF93ABE0B2E08C91EDE5D8
:1008C000F2E0808311968C9111978183CCE2D2E083
:1008D000888182838A8183838A8984831C9211968A
:1008E0001C9280919801813009F0A4C020913202BD
:1008F00030913302ADECBCEC0E948B159695879538
:1009000096958795969587958583A1E1B2E08C9120
:10091000868311968C918783A7EDB1E05E968C91CA
:100920005E97808751968C915197818714968C9110
:10093000149782879B968C918387ECE1F2E08CE0A0
:1009400090E02191DC01A35ABD4F2C930196843194
:100950009105B9F780911C028F3661F480911D02D8
:100960008B3641F448E050E06EE270E08CE192E0BA
:100970000E949A15E09197018DE08E9FF00111245D
:10098000E952FE4F9381ADE5B2E054969C935497A3
:10099000E09197018E9FF0011124E952FE4F928160
:1009A00055969C935597E09197018E9FF0011124E5
:1009B000E952FE4F968156969C935697E091970187
:1009C0008E9FF0011124E952FE4F978157969C9318
:1009D0005797E09197018E9FF0011124E952FE4F45
:1009E000908558969C935897E09197018E9FF001BF
:1009F0001124E952FE4F918559969C935997E091A5
:100A000097018E9FF0011124E952FE4F92855A966C
:100A10009C935A97E09197018E9FF0011124E9521F
:100A2000FE4F83855B968C935B9780913C025C962E
:100A30008C9344C080919801823009F03FC020918E
:100A4000320230913302ADECBCEC0E948B159695CE
:100A500087959695879596958795ADE5B2E015961D
:100A60008C9315978091920190E0FC01EE0FFF1F8F
:100A70008E0F9F1FFC01ED5EFD4F808116968C93BB
:100A800016978091920190E0FC01EE0FFF1F8E0FF0
:100A90009F1FFC01ED5EFD4F818117968C93179788
:100AA0008091920190E0FC01EE0FFF1F8E0F9F1FBF
:100AB000FC01ED5EFD4F828118968C93DF91CF9102
:100AC00008951F920F920FB60F9211242F933F9308
:100AD0004F935F936F937F938F939F93AF93BF9346
:100AE000CF93EF93FF9380919801882351F08091E9
:100AF0009801813041F080919801823031F4C9E051
:100B000005C0C5E003C0CDE101C0C0E08091B900DF
:100B1000887F8093850280918502883AB9F138F404
:100B2000803871F0803A39F1811155C050C0803C55
:100B300009F449C0883C09F446C0883B59F14BC0D0
:100B40008091BB0090919501911106C08093960110
:100B500081E0809395010BC0E0919401F0E0E558AD
:100B6000FD4F8083809194018F5F8093940185EC89
:100B70008093BC0033C0109295011092940181E0E3
:100B80008093930185EC8093BC0028C00E945A0496
:100B900010929901E0919901F0E0E35AFD4F8081B4
:100BA0008093BB00809199018F5F80939901809120
:100BB0009901C81304C085E88093BC000FC085EC80
:100BC0008093BC000BC085EC8093BC0007C085ED12
:100BD0008093BC0003C085EC8093BC00FF91EF9133
:100BE000CF91BF91AF919F918F917F916F915F91C5
:100BF0004F913F912F910F900FBE0F901F9018951E
:100C0000CF92DF92EF92FF920F931F93CF93DF93D8
:100C100000D000D01F92CDB7DEB76C01CB010CE144
:100C200012E028E0F80111922A95E9F79E012F5F62
:100C30003F4F790125E0F70111922A95E9F74AE043
:100C4000B7010E94AC15B601C8010E94A115F801B8
:100C500001900020E9F731978AE390E09183808347
:100C6000B701C8010E94A1150F900F900F900F902F
:100C70000F90DF91CF911F910F91FF90EF90DF9038
:100C8000CF900895CF93DF9380919301882309F447
:100C90008CC1E09196018E2F90E0FC013197ED30F0
:100CA000F10508F07DC1EC5CFF4F0C948515809137
:100CB0007B0240E061E00E94D00D72C180917B0216
:100CC000809397010E94C90A6BC1ABE7B2E0EC9137
:100CD00011968C919DE0E99FF0011124E952FE4F9D
:100CE00085835EC180917C0281110DC0EBE7F2E04B
:100CF000808180933C02808190E061E088519C4F2C
:100D00000E94BB084DC180917C02833021F5EBE746
:100D1000F2E0808190E09C01220F331F880F991F21
:100D2000880F991F880F991F820F931F9093370286
:100D300080933602208130E0C901880F991F220F6D
:100D4000331F220F331F220F331F60E0820F931FC8
:100D50000E94BB0825C1EBE7F2E0808190E09C0196
:100D6000220F331F880F991F880F991F880F991F13
:100D7000820F931F9093370280933602208130E0D8
:100D8000C901880F991F220F331F220F331F220F13
:100D9000331F61E0820F931F0E94BB0801C1CBE7A4
:100DA000D2E04A81698188810E941C026A8170E0D8
:100DB00080E591E00E940006F3C080917B02809361
:100DC00098016091980170E083E591E00E9400062F
:100DD000E7C0CCE2D2E0688984E60E941302688909
:100DE00070E080E591E00E940006DAC080917B020D
:100DF000ECE2F2E0818B618970E080E591E00E9495
:100E00000006CEC080917B0280933E02C9C08091D3
:100E10007B02ECE2F2E0808F608D70E080E591E093
:100E20000E940006BDC080917B0280939201B8C0F1
:100E300080917C028130E9F120F0823009F471C0A8
:100E4000AFC0ABE7B2E08C9190E012962C91129774
:100E5000FC01EE0FFF1F8E0F9F1FFC01ED5EFD4F8B
:100E60002083CC91D0E08C9190E0FC01EE0FFF1F2D
:100E70008E0F9F1FFC01ED5EFD4F608170E080E0F2
:100E800090E00E9463142AE037ED43E25CE30E94A5
:100E900018159E01220F331FC20FD31FCC0FDD1F69
:100EA000CC0FDD1FCD54DE4F688379838A839B830B
:100EB00077C0ABE7B2E08C9190E012962C9112973C
:100EC000FC01EE0FFF1F8E0F9F1FFC01ED5EFD4F1B
:100ED0002183CC91D0E08C9190E0FC01EE0FFF1FBC
:100EE0008E0F9F1FFC01ED5EFD4F618170E080E081
:100EF00090E00E9463142AE037ED43E25CE30E9435
:100F000018159E01220F331FC20FD31FCC0FDD1FF8
:100F1000CC0FDD1FCD54DE4F688379838A839B839A
:100F20003FC0ABE7B2E08C9190E012962C91129703
:100F3000FC01EE0FFF1F8E0F9F1FFC01ED5EFD4FAA
:100F40002283CC91D0E08C9190E0FC01EE0FFF1F4A
:100F50008E0F9F1FFC01ED5EFD4F628170E080E00F
:100F600090E00E9463142AE037ED43E25CE30E94C4
:100F700018159E01220F331FC20FD31FCC0FDD1F88
:100F8000CC0FDD1FCD54DE4F688379838A839B832A
:100F900007C0EBE7F2E04281618180810E9431026B
:100FA000109293011092960181E0DF91CF91089504
:100FB00080913E028823C1F080912D02813031F46E
:100FC00040E061E083E00E94D00D089580912D0201
:100FD000833051F440E061E081E00E94D00DECE20A
:100FE000F2E082898150828B089590912C02913099
:100FF00019F40E949A12089590912C02943029F0CD
:1010000090912C02933009F045C090912F029111DC
:1010100030C04630510568F17091A0017A3048F532
:101020004634510510F443E001C042E090912C0297
:10103000943061F4282F30E0649FF0011124E2170E
:10104000F30724F47F5F7093A00116C090912C02E7
:10105000933061F4262F30E0849FC0011124821761
:10106000930724F47F5F7093A00106C01092A00143
:1010700008951092A00108958091A001843051F448
:1010800081E080932F0260E08AE491E00E942913BE
:101090001092A00108959C0190913E02992321F1A4
:1010A00080912C02813001F5809111028531E0F0B0
:1010B000809112028531C0F080919E0190919F0134
:1010C00001968D3241E0940728F490939F0180931C
:1010D0009E0118C010929F0110929E0141E061E0B4
:1010E00082E00E94D00D089590919D019F5F943001
:1010F00018F490939D0106C010929D0110929F01DB
:1011000010929E0190912C029230A1F190913F0299
:10111000913081F180912E02813061F180912C0219
:10112000823029F410929C0110929B010895203185
:10113000310540F480919C018233E0F48F5F80930D
:101140009C01089580919C01823318F410929C01B7
:10115000089580919B01811104C081E080939B01DF
:10116000089510929C0110929B0141E061E082E0A1
:101170000E94D00D0895CF93DF93EC010E942913B4
:10118000D0933702C0933602DF91CF910895863312
:101190009140D8F480919A018D3318F48F5F809339
:1011A0009A0180919A01883229F440E061E082E05E
:1011B0000E94D00D80919A018C3349F45B98809104
:1011C0009A018F5F80939A01089510929A01089571
:1011D0002FEF81EE94E0215080409040E1F700C075
:1011E00000000E94460478940E94DD010E947A0269
:1011F00088E090E00E9411130E94C90A0E943B11EE
:101200000E94830081E00E94AE0282E00E94AE0252
:1012100084E00E94AE0285E00E94AE0283E00E945C
:10122000AE0254985C98FFCFCF93DF938091300249
:10123000811108C080913102882309F46DC0109299
:1012400031026AC08091310281110CC01092A90153
:101250001092A8011092AB011092AA0181E0809334
:1012600031025AC080913102813009F455C0809119
:101270003102823089F48091A8019091A9010196F0
:101280009093A9018093A8018139914008F444C04A
:1012900083E08093310240C080913102833041F578
:1012A0008091AA019091AB018139914050F4CCE238
:1012B000D2E01C8240E061E081E00E94D00D1D82FE
:1012C0002BC080912D02873031F440E060E083E054
:1012D0000E94D00D09C080912D02863029F440E093
:1012E00060E084E00E94D00D85E08093310214C05C
:1012F00080913102853081F48091AA019091AB01F7
:10130000893C910548F4CCE2D2E01C8240E061E0E7
:1013100081E00E94D00D1D82DF91CF9108958F92C0
:101320009F92AF92BF92CF92DF92EF92FF92BC0159
:1013300090913102913039F01092A7011092A601DC
:101340001092A50180C0C090A101D090A201E090B0
:10135000A301F090A40180E090E00E946114A70135
:1013600096010E9447134B015C010E942B149B01C4
:10137000772324F422273327261B370BB901330F99
:10138000880B990B0E94631420E030E040EC5FE38F
:101390000E94131518162CF02FE832EC45EF5CE391
:1013A00004C026E636E646E65FE3C501B4010E94C6
:1013B0001815A70196010E9448136093A10170932C
:1013C000A2018093A3019093A4010E943214683279
:1013D000710570F58091A6019091A701899768F435
:1013E0001092A5011092A7011092A6012CC001969F
:1013F0009093A7018093A60126C08091A501853016
:1014000040F48F5F8093A5011EC08091A5018530B7
:10141000D0F040E060E082E00E94D00D1092A70181
:101420001092A6011092A50182E0809331020BC0B8
:101430006932710550F38091A6019091A70189321C
:101440009105A8F2E2CFFF90EF90DF90CF90BF9090
:10145000AF909F908F90089580913102823069F40F
:101460008091AA019091AB01803127E2920728F484
:1014700001969093AB018093AA018091310285304F
:1014800059F48091AA019091AB01009729F001973E
:101490009093AB018093AA0108951F93CF93DF939C
:1014A00020E030E0CDE0B901C29FF001C39FF00D14
:1014B0001124E952FE4F1181D481AD2FB0E0858116
:1014C00090E0438150E08417950748F4C29FF001F3
:1014D000C39FF00D1124E952FE4F838190E0C69F17
:1014E000F001C79FF00D1124E952FE4F428150E0F8
:1014F0004817590708F045C0C69FF001C79FF00D77
:101500001124E952FE4F828190E08A179B07C0F4B4
:10151000A11BB109A817B90748F4C69FF001C79FDE
:10152000F00D1124E952FE4F848324C0D11BC69FC5
:10153000F001C79FF00D1124E952FE4FD4831AC069
:10154000A817B907B8F4A10FB11D8A179B0748F473
:10155000C69FF001C79FF00D1124E952FE4F84830E
:1015600009C0D10FC69FF001C79FF00D1124E952A9
:10157000FE4FD4832F5F3F4F2430310509F093CFC6
:1015800004C08A179B0720F2DBCFDF91CF911F9118
:101590000895FF920F931F93CF93DF93CCE2D2E095
:1015A00012E0188319831A821B821C821D821F82FB
:1015B0001E821886198688EC90E09B878A879D8713
:1015C0008C871F861E8684E60E944202888B81E0FB
:1015D000898B1A8A1B8A1C8A1D8A1F8A1E8A188E6A
:1015E000E4E2F2E0108212821382148215821682E3
:1015F0001782EBE0F2E01082118212821382E7ED93
:10160000F1E08083158783E0828F84E087A3C0E0C8
:10161000D0E00F2EFDE0FF2EF02D63E08C2F0E9416
:101620004A02FC9E8001FD9E100D112409521E4F9E
:10163000F801878363E08C2F0E944A02F8018483BB
:1016400063E08C2F0E944A02F801858361E08C2FB1
:101650000E944A02F801828360E08C2F0E944A02B5
:10166000F801838362E08C2F0E944A02F80186838E
:1016700064E08C2F0E944A02F801808765E08C2F7D
:101680000E944A02F801818766E08C2F0E944A027C
:10169000F801828767E08C2F0E944A02F801838755
:1016A00068E08C2F0E944A02F80181832196C430A1
:1016B000D10509F0B2CFE7EDF1E016A2118E8781D6
:1016C000885D848785A5885D83AB80E29EE49093E6
:1016D00089008093880010928000E1E8F0E080812A
:1016E000886080832098289AA8E6B0E08C91816079
:1016F0008C93CBE6D0E088818160888355985D9A91
:101700008C9184608C93ADE6B0E08C9180628C9378
:101710001092850010928400808182608083EFE6C1
:10172000F0E0808182608083219A229A239A249A11
:1017300029982A982B982C98539A5B9A61E088EC08
:1017400090E00E94BB08DF91CF911F910F91FF9015
:1017500008951F920F920FB60F9211242F933F936B
:101760004F935F936F937F938F939F93AF93BF93A9
:10177000EF93FF93189914C080910C028D3F28F4C9
:10178000EBE0F2E081818F5F818380910E028D3FDB
:1017900028F4EBE0F2E083818F5F83830E942C0AC0
:1017A000FF91EF91BF91AF919F918F917F916F9139
:1017B0005F914F913F912F910F900FBE0F901F900F
:1017C00018951F920F920FB60F9211242F933F93EB
:1017D0004F935F936F937F938F939F93AF93BF9339
:1017E000EF93FF934D9914C080910B028D3F28F425
:1017F000EBE0F2E080818F5F808380910D028D3F6E
:1018000028F4EBE0F2E082818F5F82830E942C0A51
:10181000FF91EF91BF91AF919F918F917F916F91C8
:101820005F914F913F912F910F900FBE0F901F909E
:1018300018951F920F920FB60F9211242F933F937A
:101840004F935F936F937F938F939F93AF93BF93C8
:10185000CF93DF93EF93FF938091AC01813009F434
:1018600005C18091AE0181112CC0E091AD0195B10F
:101870008DE08E9FF0011124E952FE4F21E030E00F
:10188000008002C0220F331F0A94E2F7292B25B9EA
:10189000E091AD018E9FF0011124E952FE4F848149
:1018A00090E09C01220F331F880F991F880F991F0A
:1018B000880F991F820F931F90938900809388004F
:1018C00027C0E091AD0135B12DE02E9FF00111242C
:1018D000E952FE4F81E090E0008002C0880F991F1E
:1018E0000A94E2F780959095832385B9E091AD0144
:1018F0002E9FF0011124E952FE4F248136EF32036E
:10190000C001112488579C4E9093890080938800D1
:101910008091AE01813009F099C01092AE018091A2
:10192000AD018F5F8093AD010E9422030E941409D4
:1019300080913D02823011F40E944D0A4C9908C0FA
:10194000E7EDF1E084E6838F81A1878F0E944D0A45
:1019500080912402813021F40E94420610922402D8
:1019600080912502823041F480913D02813011F452
:101970000E944D0A1092250280912602833039F48C
:1019800080912C0290E00E94310E109226028091EC
:101990002702853011F410922702809128028730A7
:1019A00041F480913D02811102C00E944D0A1092C3
:1019B000280280912902893011F410922902809125
:1019C0002A02833111F580910D02882371F08091F4
:1019D0000E02882351F0EBE0F2E02281838190E057
:1019E000820F911D9583848304C01092100210927F
:1019F0000F02CBE0D2E04C815D816B818A810E9435
:101A0000F5071A821B8210922A0280912B028B33D7
:101A100011F410922B02E4E2F2E080818F5F808368
:101A200081818F5F818382818F5F828383818F5FDA
:101A3000838384818F5F848385818F5F85838681A3
:101A40008F5F868387818F5F878303C081E0809368
:101A5000AE018091AF018F5F8093AF018091AF01A4
:101A6000883021F41092AF011092AD01FF91EF91F7
:101A7000DF91CF91BF91AF919F918F917F916F91A6
:101A80005F914F913F912F910F900FBE0F901F903C
:101A9000189520913A0230913B02232B91F58091C9
:101AA0003D02811108C0E7EDF1E082E080A781836B
:101AB000838F868707C0E7EDF1E081E080A781830F
:101AC000838F8687ECE2F2E010868181843021F0FA
:101AD00080912D02873031F4E7EDF1E08781858335
:101AE00080E0089580912D02833029F080912D02AD
:101AF000863009F04FC0E7EDF1E082A584A780E0D1
:101B00000895982F20913A0230913B022A303105F6
:101B100039F462E080E090E00E94BB0880E0089524
:101B200020913A0230913B022832310531F4E7ED41
:101B3000F1E08489828B80E0089520913A0230910F
:101B40003B022C33310589F4E7EDF1E081A1878F69
:101B50008781858386A584A781A1878F61E088EC32
:101B600090E00E94BB0880E0089520913A023091F5
:101B70003B022035310511F4882371F020913A029F
:101B800030913B022E36310549F481E0913039F035
:101B900080E0089580E0089581E0089580E0089550
:101BA000CF93DF9390912E02913009F457C06130AA
:101BB00011F41092300290913002911113C09AEFFB
:101BC000980F923078F4CCE2D2E0888360E088E528
:101BD00092E00E94BB08E7EDF1E085A1878F81E0EC
:101BE0008C833CC090913002913051F5843099F44F
:101BF00090912C02973021F5E7EDF1E082A1878FDB
:101C0000CCE2D2E084E0888360E084E195E00E9449
:101C1000BB081C8223C0833099F490912C0296302B
:101C200079F4E7EDF1E083A1878FCCE2D2E083E0A5
:101C3000888360E084E195E00E94BB081C820EC0AE
:101C400090912C02891751F0ECE2F2E0178616868B
:101C500090819183438B808381E08283DF91CF9158
:101C600008950F931F93CF93DF9380912E028823C3
:101C700009F4FCC280912C02813021F080912C0269
:101C8000893029F480912D02853009F4D6C28091E3
:101C90002C02853009F0CBC280912D02813009F4ED
:101CA000CCC280912D02893009F0C1C2C6C2809198
:101CB0002C028B3009F4CDC280912C028A3009F4B9
:101CC000C8C280912D028B3021F080912D028A3084
:101CD00029F480912C02813009F4BBC280912D023D
:101CE000823009F4B6C280912C02823009F4B1C26C
:101CF00081E00E94490D81110FC080913A029091BC
:101D00003B02843F914040F4ECE2F2E08685978507
:101D1000019697878687AAC2ECE2F2E082E081838F
:101D200013821786168689C280E00E94490D5AC226
:101D300080912D028B3071F580913A0290913B0297
:101D4000892B89F480913C0290E061E088519C4F9E
:101D50000E94BB08E7EDF1E08389828B8781858350
:101D600085A584A741C280913A0290913B02C29717
:101D700029F4E7EDF1E080A1878F36C280913A0225
:101D800090913B028436910509F02EC281E0809348
:101D900034023BC280912D028A3009F03FC080910D
:101DA0003A0290913B02892B29F4E7EDF1E082A5FC
:101DB00084A71AC280913A0290913B024E9729F46F
:101DC000E7EDF1E08389828B0FC280913A02909116
:101DD0003B02CC97B9F4CCE2D2E08E899F8907ED23
:101DE00011E0F80185838E899F890E94B800F8016F
:101DF00080A1878F888990E061E088519C4F0E9484
:101E0000BB08F2C180913A0290913B028436910561
:101E100009F0EAC181E080933402F7C180913A026F
:101E200090913B02892BE1F4CCE2D2E0888990E0EA
:101E300061E088519C4F0E94BB088989811104C0D0
:101E400082E08093FF0103C081E08093FF01E7ED12
:101E5000F1E081E08183838F868785A584A7C4C153
:101E600080913A0290913B024E9739F4E7EDF1E010
:101E70008389828B86818583B7C180913A02909154
:101E80003B02889709F0B0C1E7EDF1E080A1878FB0
:101E9000848190E00E94B80081E080933402B5C153
:101EA00080913A0290913B02892BE1F4CCE2D2E09E
:101EB000888990E061E088519C4F0E94BB08898925
:101EC000811104C082E08093FF0103C081E0809310
:101ED000FF01E7EDF1E081E08183838F868781A9AF
:101EE00084A782C180913A0290913B024E9739F4C7
:101EF000E7EDF1E08789828B8285858375C18091CA
:101F00003A0290913B02889709F06EC1E7EDF1E04B
:101F100084A1878F848190E00E94B80081E0809343
:101F2000340273C180913A0290913B02892BE1F413
:101F300080913D02811107C0E7EDF1E082E080A7CA
:101F40008183868706C0E7EDF1E081E080A7818389
:101F50008687E7EDF1E081E0838F87A584A7808500
:101F6000858382A1878F40C180913A0290913B0284
:101F70000A9761F4E7EDF1E08589828B87A584A754
:101F800060E084E195E00E94BB082EC180913A0296
:101F900090913B02449781F480913002813009F0A6
:101FA00023C180913102853009F01EC161E080E9D2
:101FB00091E00E94BB0829C180913A0290913B02B6
:101FC0004E9741F480913D0281110EC184E08093CF
:101FD000D8010AC180913A0290913B028436910562
:101FE00009F002C18091DF0190E00E94B80081E019
:101FF000809334020AC180913A0290913B02892B6E
:10200000F1F461E080E090E00E94BB0880913D0225
:10201000811106C0E7EDF1E082E080A7868705C068
:10202000E7EDF1E081E080A78687E7EDF1E081E070
:102030008183838F80A984A783A1878FD5C0809156
:102040003A0290913B020A9761F4E7EDF1E0818555
:1020500085838689828B60E084E195E00E94BB08DD
:10206000C3C080913A0290913B02449781F48091E1
:102070003002813009F0B8C080913102853009F01A
:10208000B3C061E080E991E00E94BB08BEC08091CE
:102090003A0290913B02CC9741F480913D0281112C
:1020A000A3C084E08093FF019FC080913A02909189
:1020B0003B028436910509F097C08091070290E0B9
:1020C0000E94B80081E0809334029FC080913A0260
:1020D00090913B02892B41F41092340261E080E937
:1020E00091E00E94BB0880C080913A0290913B022F
:1020F000C29731F4E7EDF1E081A1885D878F74C06C
:1021000080913A0290913B02C59729F4E7EDF1E006
:1021100087A584A769C080913A0290913B02C89735
:1021200029F4E7EDF1E08589828B5EC080913A0267
:1021300090913B02883C910509F056C081E0809364
:10214000340263C080913A0290913B02892BC1F422
:10215000E7EDF1E083A590E0ACE2B2E057969C9306
:102160008E93569718961C9280A984A780A990E018
:102170000E94B80061E080E991E00E94BB0834C091
:1021800080913A0290913B02CC9731F4E7EDF1E077
:1021900081A1885D878F28C080913A0290913B028F
:1021A0008934910529F4E7EDF1E0818585831CC030
:1021B00080913A0290913B028635910529F4E7ED32
:1021C000F1E08689828B10C080913A0290913B02A7
:1021D000883C910549F481E08093340216C080E088
:1021E0000E94490D81110FC080913A0290913B02EB
:1021F000843F9140D8F5ECE2F2E086859785019620
:102200009787868733C0813089F5ECE2F2E013824C
:102210001786168612828081823041F580913F02B6
:10222000882321F110923F020E94D8071FC080919D
:102230002D02813009F045CD3ACDE0912C028E2F50
:1022400090E08C30910558F6FC01EF5BFF4F0C9449
:102250008515E0912C028E2F90E08C30910508F0CE
:10226000BECFFC01E35BFF4F0C948515DF91CF914E
:102270001F910F910895EF92FF920F931F93CF93A9
:10228000DF93E12CF12C60E08E2D0E946C02E701BF
:10229000CC0FDD1FCE0DDF1D8E010D5E1D4FF80131
:1022A000808361E08E2D0E946C02F801818362E0E0
:1022B0008E2D0E946C02F8018283608170E080E0C4
:1022C00090E00E9463142AE037ED43E25CE30E9451
:1022D0001815CC0FDD1FCC0FDD1FCD54DE4F6883EA
:1022E00079838A839B83F801618170E080E090E0CC
:1022F0000E9463142AE037ED43E25CE30E94181564
:102300006C837D838E839F83F801628170E080E01F
:1023100090E00E9463142AE037ED43E25CE30E9400
:102320001815688779878A879B87FFEFEF1AFF0A5E
:1023300083E0E816F10409F0A6CFDF91CF911F9159
:102340000F91FF90EF9008954F925F926F927F925E
:10235000AF92BF92CF92DF92EF92FF920F931F93B3
:10236000CF93DF9300D000D0CDB7DEB7E0912C0241
:102370008E2F90E0FC013197EB30F10508F0C7C0DB
:10238000E75AFF4F0C9485157091D9016091DA01DD
:10239000E3EBF1E0A084B184C284D384E480F580CF
:1023A00006811781208131814281538180913202DF
:1023B000909133021F927F931F926F936FE36F93FD
:1023C00060E86F931F921F9262EC71E00E94CE0052
:1023D0008093DC010FB6F894DEBF0FBECDBF97C06F
:1023E000E3EBF1E0408C518C628C738C848D958D85
:1023F000A68DB78D89839A83AB83BC838091440279
:102400008F3090F486EA9BE9A4E4BBE389839A8346
:10241000AB83BC830F2EFDEC4F2EFCEC5F2EFCE457
:102420006F2EFDE37F2EF02D0CE212E0D801169600
:102430006D917C91179789E591E00E94000630919B
:10244000000220910102A090D301B090D401C0906D
:10245000D501D090D601F801868197811F923F93D4
:102460001F922F932FE32F9320E82F931F921F92F9
:10247000E980FA800B811C81A301920162EC71E07A
:102480000E94CE00809303020FB6F894DEBF0FBE09
:10249000CDBF3DC0E3EBF1E024853585468557850A
:1024A000E088F18802891389809144028F3050F4CA
:1024B00016EAE12E1BE9F12E04E41BE32DEC3CECC3
:1024C0004CE45DE37091D9016091DA01A090C701FD
:1024D000B090C801C090C901D090CA018091320269
:1024E000909133021F927F931F926F936FE36F93CC
:1024F00060E86F931F921F9262EC71E00E94CE0021
:102500008093DC010FB6F894DEBF0FBECDBF0F90F5
:102510000F900F900F90DF91CF911F910F91FF902F
:10252000EF90DF90CF90BF90AF907F906F905F90D3
:102530004F90089580912C02813051F480913402A3
:10254000882331F080910F0290911002039758F484
:10255000E7EDF1E093A585A5981711F085A584A76F
:102560001092B20108958091B1018A3F18F4680F6A
:102570006093B1018091B0018F5F8093B00187308B
:1025800030F1809104029091B101990F8C53890F21
:10259000813A08F080EA90910202981760F49091D5
:1025A000B2019F5F9093B201963038F0809303029E
:1025B0001092B20102C01092B201909102028917EA
:1025C00010F4809303021092B0011092B1010895AB
:1025D000E0ECF0E0908195FFFDCF8093C6008FE89E
:1025E00091E00197F1F700C0000008950F931F9349
:1025F000CF938B010E94E812F8018081882351F06B
:10260000C0E00E94E812CF5FF801EC0FF11D80815D
:102610008111F7CF8DE00E94E812CF911F910F91A9
:102620000895519A2BB123602BB99093C5008093E4
:10263000C400E0ECF0E0808182608083E2ECF0E0B6
:10264000808186608083E1ECF0E080818860808317
:102650000895CF93C62F4AE066E872E00E94AC1559
:10266000C13031F466E872E083E70E94F6120DC0D3
:10267000C23031F466E872E082E60E94F61205C0CC
:1026800066E872E08CE60E94F612CF9108955058E9
:10269000BB27AA270E945F130C94D9140E94CB1465
:1026A00038F00E94D21420F039F49F3F19F426F438
:1026B0000C94C8140EF4E095E7FB0C94C214E92FB7
:1026C0000E94EA1458F3BA17620773078407950744
:1026D00020F079F4A6F50C940C150EF4E0950B2E71
:1026E000BA2FA02D0B01B90190010C01CA01A00164
:1026F0001124FF27591B99F0593F50F4503E68F1BF
:102700001A16F040A22F232F342F4427585FF3CFFF
:10271000469537952795A795F0405395C9F77EF4D0
:102720001F16BA0B620B730B840BBAF09150A1F019
:10273000FF0FBB1F661F771F881FC2F70EC0BA0F9F
:10274000621F731F841F48F4879577956795B79527
:10275000F7959E3F08F0B0CF9395880F08F0992722
:10276000EE0F9795879508950E949E1408F481E0D6
:1027700008950E94CD130C94D9140E94D21458F0DD
:102780000E94CB1440F029F45F3F29F00C94C2144E
:1027900051110C940D150C94C8140E94EA1468F39E
:1027A0009923B1F3552391F3951B550BBB27AA270A
:1027B00062177307840738F09F5F5F4F220F331F44
:1027C000441FAA1FA9F335D00E2E3AF0E0E832D00C
:1027D00091505040E695001CCAF72BD0FE2F29D00F
:1027E000660F771F881FBB1F261737074807AB07E1
:1027F000B0E809F0BB0B802DBF01FF2793585F4F56
:102800003AF09E3F510578F00C94C2140C940D15CB
:102810005F3FE4F3983ED4F3869577956795B79537
:10282000F7959F5FC9F7880F911D9695879597F942
:102830000895E1E0660F771F881FBB1F62177307BB
:102840008407BA0720F0621B730B840BBA0BEE1FD0
:1028500088F7E09508950E9432146894B1110C94A1
:102860000D1508950E94F21488F09F5798F0B92F23
:102870009927B751B0F0E1F0660F771F881F991FB5
:102880001AF0BA95C9F714C0B13091F00E940C1536
:10289000B1E008950C940C15672F782F8827B85F46
:1028A00039F0B93FCCF3869577956795B395D9F70D
:1028B0003EF490958095709561957F4F8F4F9F4F17
:1028C0000895E89409C097FB3EF490958095709523
:1028D00061957F4F8F4F9F4F9923A9F0F92F96E96C
:1028E000BB279395F695879577956795B795F111E1
:1028F000F8CFFAF4BB0F11F460FF1BC06F5F7F4F7E
:102900008F4F9F4F16C0882311F096E911C077238F
:1029100021F09EE8872F762F05C0662371F096E898
:10292000862F70E060E02AF09A95660F771F881F67
:10293000DAF7880F9695879597F90895990F00080B
:10294000550FAA0BE0E8FEEF16161706E807F90781
:10295000C0F012161306E407F50798F0621B730B1C
:10296000840B950B39F40A2661F0232B242B252B9D
:1029700021F408950A2609F4A140A6958FEF811D40
:10298000811D089597F99F6780E870E060E00895E1
:102990009FEF80EC089500240A9416161706180677
:1029A0000906089500240A94121613061406050653
:1029B0000895092E0394000C11F4882352F0BB0FE4
:1029C00040F4BF2B11F460FF04C06F5F7F4F8F4F47
:1029D0009F4F089557FD9058440F551F59F05F3F82
:1029E00071F04795880F97FB991F61F09F3F79F031
:1029F00087950895121613061406551FF2CF4695B3
:102A0000F1DF08C0161617061806991FF1CF869534
:102A10007105610508940895E894BB276627772718
:102A2000CB0197F908950E949E1408F48FEF089542
:102A30000E942B150C94D9140E94CB1438F00E94DC
:102A4000D21420F0952311F00C94C2140C94C814E5
:102A500011240C940D150E94EA1470F3959FC1F394
:102A6000950F50E0551F629FF001729FBB27F00D3C
:102A7000B11D639FAA27F00DB11DAA1F649F662791
:102A8000B00DA11D661F829F2227B00DA11D621FE0
:102A9000739FB00DA11D621F839FA00D611D221F9A
:102AA000749F3327A00D611D231F849F600D211D7E
:102AB000822F762F6A2F11249F5750409AF0F1F001
:102AC00088234AF0EE0FFF1FBB1F661F771F881F6A
:102AD00091505040A9F79E3F510580F00C94C214CC
:102AE0000C940D155F3FE4F3983ED4F386957795EB
:102AF0006795B795F795E7959F5FC1F7FE2B880F10
:102B0000911D9695879597F90895EE0FFF1F0590F3
:102B1000F491E02D0994A29FB001B39FC001A39F3F
:102B2000700D811D1124911DB29F700D811D112406
:102B3000911D0895DC0101C06D9341505040E0F7B4
:102B40000895FB01DC010D900020E9F71197019039
:102B50000D920020E1F70895BB274A3031F4992304
:102B600022F4BDE2909581959F4F0C94B815BB2738
:102B7000FB015527AA27880F991FAA1FA41710F039
:102B8000A41B83955051B9F7A05DAA3308F0A95D45
:102B9000A193009779F7B111B1931192CB010C94E5
:102BA000D115DC01FC01672F71917723E1F7329792
:102BB00004C07C916D9370836291AE17BF07C8F318
:062BC0000895F894FFCF18
:102BC600580056005400520050004E004C004A0077
:102BD600480046004400420040003E003C003A00E7
:102BE600380036003400320030002E002C002A0057
:102BF60028002700260025002400230022002100AB
:102C060020001F001E001D001C001B001A001900DA
:0C2C16006F6B004465627567005200009F
:00000001FF
