:1000000019C028C027C026C025C024C023C022C0D4
:1000100021C020C01FC01EC01DC01CC01BC01AC0F4
:1000200019C018C017C016C015C014C013C012C024
:1000300095C010C011241FBECFEFD4E0DEBFCDBFEE
:1000400021E0A0E0B1E001C01D92A331B207E1F7C9
:1000500033D155C2D5CF8FEF84B985B989E284B940
:1000600081E285B988E58CBD089528989EBD0DB4C0
:1000700007FEFDCF8EBD0DB407FEFDCF289A089573
:10008000CF92DF92EF92FF920F931F93CF93DF9364
:100090008B01BC0180E090E041D127E73CEC4BE2D2
:1000A00051E4A2D10FD16B017C010B2EBEE0F6947E
:1000B000E794D794C794BA95D1F7B02D2FE3D22205
:1000C0007F7380ECD81AEB01D05C0115110521F487
:1000D00080E090E2CADF06C00130110519F480E02B
:1000E00098E2C3DFCE01C1DFC601BFDFDF91CF9150
:1000F0001F910F91FF90EF90DF90CF90089580E0D7
:1001000091E2B3DF88E892E7B0DF87E190E4ADDF0A
:100110008AEE9CEAAADF83E190E8A7DF80E090EC1A
:10012000A4DF80E090EEA1DF80E090E29EDF089502
:10013000ECEBF0E08081846C80830895ECEBF0E0E0
:1001400080818F7B808380818468808308958AE4A6
:100150008093BA0085EC8093BC0008951F920F92A3
:100160000FB60F9211242F933F934F935F936F938A
:100170007F938F939F93AF93BF93EF93FF93809160
:10018000B900887F80931201809112018038C9F4F0
:100190008091BB0090910201911106C080930301F0
:1001A00081E0809302010BC0E0910101F0E0E85F83
:1001B000FE4F8083809101018F5F80930101B8DF42
:1001C00040C080911201803A49F4109202011092CD
:1001D000010181E080930401ABDF33C08091120103
:1001E000803B19F4109200012CC080911201883AD2
:1001F00061F41092000180910001823021F49EDFB1
:10020000109200011EC094DF1CC080911201883B37
:10021000B9F4E0910001F0E0EB5FFE4F8081809344
:10022000BB00809100018F5F8093000180910001ED
:10023000823021F483DF1092000103C079DF01C016
:1002400077DFFF91EF91BF91AF919F918F917F9158
:100250006F915F914F913F912F910F900FBE0F9033
:100260001F901895809104018823D1F0809103019B
:10027000813099F480910801853140F48091080122
:1002800022E3829FC00111240CD007C08091080195
:1002900024E6829FC001112404D01092040181E061
:1002A0000895CF93DF93EC01D6DE60E070E0CE01DD
:1002B000E7DEDF91CF910895789449DFCCDE1FDF30
:1002C000D1DFFECF70D088F09F5790F0B92F9927DB
:1002D000B751A0F0D1F0660F771F881F991F1AF051
:1002E000BA95C9F712C0B13081F077D0B1E0089566
:1002F00074C0672F782F8827B85F39F0B93FCCF3E7
:10030000869577956795B395D9F73EF49095809546
:10031000709561957F4F8F4F9F4F0895E89409C066
:1003200097FB3EF490958095709561957F4F8F4F28
:100330009F4F9923A9F0F92F96E9BB279395F6953E
:10034000879577956795B795F111F8CFFAF4BB0FBC
:1003500011F460FF1BC06F5F7F4F8F4F9F4F16C020
:10036000882311F096E911C0772321F09EE8872FAA
:10037000762F05C0662371F096E8862F70E060E066
:100380002AF09A95660F771F881FDAF7880F9695DF
:10039000879597F9089557FD9058440F551F59F0C8
:1003A0005F3F71F04795880F97FB991F61F09F3F62
:1003B00079F087950895121613061406551FF2CF8B
:1003C0004695F1DF08C0161617061806991FF1CFDB
:1003D00086957105610508940895E894BB27662702
:1003E0007727CB0197F908950BD078C069D028F012
:1003F0006ED018F0952309F05AC05FC01124EECFDB
:10040000CADFA0F3959FD1F3950F50E0551F629F6F
:10041000F001729FBB27F00DB11D639FAA27F00D5D
:10042000B11DAA1F649F6627B00DA11D661F829F84
:100430002227B00DA11D621F739FB00DA11D621F69
:10044000839FA00D611D221F749F3327A00D611D86
:10045000231F849F600D211D822F762F6A2F112468
:100460009F5750408AF0E1F088234AF0EE0FFF1FBB
:10047000BB1F661F771F881F91505040A9F79E3FF2
:10048000510570F014C0AACF5F3FECF3983EDCF347
:10049000869577956795B795F795E7959F5FC1F72F
:1004A000FE2B880F911D9695879597F9089597F9DA
:1004B0009F6780E870E060E008959FEF80EC08950A
:1004C00000240A9416161706180609060895002433
:1004D0000A9412161306140605060895092E0394AD
:1004E000000C11F4882352F0BB0F40F4BF2B11F421
:1004F00060FF04C06F5F7F4F8F4F9F4F0895F89448
:02050000FFCF2B
:00000001FF
