S017000056754D657474657250726F6A6563742E73726563FA
S113000019C028C027C026C025C024C023C022C0D0
S113001021C020C01FC01EC01DC01CC01BC01AC0F0
S113002019C018C017C016C015C048C113C012C0EB
S11300302AC010C011241FBECFEFD4E0DEBFCDBF55
S113004021E0A0E0B1E001C01D92A832B207E1F7BF
S113005023D2F3C3D5CFF999FECF90E092BD81BDF1
S113006060BDFA9AF99A0895F999FECF90E092BD8D
S113007081BDF89A80B508958EE38093BA0085EC2B
S11300808093BC0008951F920F920FB60F92112413
S11300902F933F934F935F936F937F938F939F938C
S11300A0AF93BF93CF93DF93EF93FF938091B90006
S11300B0887F8093270180912701883AB9F138F429
S11300C0803871F0803A39F1811159C054C0803CB4
S11300D009F44DC0883C09F44AC0883B79F14FC00B
S11300E08091BB0090910101911106C0809302019F
S11300F081E0809301010BC0E0910001F0E0E35E38
S1130100FE4F8083809100018F5F8093000185EC16
S11301108093BC0037C0109201011092000181E06D
S11301208093040185EC8093BC002CC06AD1CAE1A1
S1130130D1E0888372D1898310920301E091030195
S1130140F0E0E65EFE4F80818093BB008091030166
S11301508F5F8093030180910301823021F485E84D
S11301608093BC000FC085EC8093BC000BC085EC71
S11301708093BC0007C085ED8093BC0003C085EC70
S11301808093BC00FF91EF91DF91CF91BF91AF912C
S11301909F918F917F916F915F914F913F912F919B
S11301A00F900FBE0F901F90189580910401882323
S11301B009F180910201823069F018F4813031F044
S11301C016C0833061F0843071F011C080911D013C
S11301D007D10DC060911D018AE03DDF08C0809108
S11301E01D0112D104C060911D0184E134DF10921D
S11301F0040181E00895E1E1F1E01182108282E0DE
S113020080870895F8DFEAE7F0E0808180688083E2
S113021080818160808380818260808380818B7F04
S11302208083ACE7B0E08C9180648C938C9180687F
S11302308C938081886080830895EAE7F0E0808170
S113024080648083808186FDFDCF809178009091C9
S113025079000895EF92FF920F931F93CF9381112A
S113026006C0ECE7F0E080818E7F80831BC0ECE762
S1130270F0E080818160808315C0CF5FDEDFC13014
S1130280E1F3E80EF91E0F5F1F4FC330B0F3011501
S1130290110529F0C701B801B0D2CB0109C080E033
S11302A090E006C0C1E000E010E0E12CF12CE6CFC4
S11302B0CF911F910F91FF90EF9008951F920F928D
S11302C00FB60F9211248F93EF93FF93EAE7F0E0B8
S11302D080818F7E8083FF91EF918F910F900FBE6D
S11302E00F901F9018954295242F2C7C922F969551
S11302F09695242F2373220F220F292BE22FEA7ABB
S11303009E2F9695E22FE575EE0FE92B2C9820E0B1
S113031030E0F0E02A98A9EFB0E01197F1F700C0BF
S11303200000AF01022E02C0559547950A94E2F7EA
S113033040FF02C02D9A01C02D982A9AA9EFB0E07F
S11303401197F1F700C000002F5F3F4F28303105AF
S113035009F720E030E070E02A98E9EFF0E0319707
S1130360F1F700C00000AB01022E02C0559547957D
S11303700A94E2F740FF02C02D9A01C02D982A9AF0
S1130380A9EFB0E01197F1F700C000002F5F3F4FD5
S11303902830310509F720E030E090E02A98E9EFB1
S11303A0F0E03197F1F700C00000AC01022E02C06A
S11303B0559547950A94E2F740FF02C02D9A01C073
S11303C02D982A9AA9EFB0E01197F1F700C0000028
S11303D02F5F3F4F2830310509F72C9A2C98089548
S11303E0CF93C82F1092100110920F0140E060913A
S11303F0090180910A0177DF1BB8C0930801CF91EE
S1130400089580910801089524E6829FC001112473
S1130410909307018093060108952091060130917D
S113042007013695279536952795ABE7B4E1F9D1C1
S1130430969587950895873623E09207F8F4893ACC
S113044022E09207E8F48B3322E09207D8F4893053
S113045022E09207C8F4893B21E09207B8F48B3478
S113046021E09207A8F48D3D9105A0F421E08338A2
S1130470910508F020E0822F8195089587E0089582
S113048086E0089585E0089584E0089583E0089562
S113049082E0089581E008958FEF8AB91BB8109225
S11304A0050184B1846384B983ED90E30197F1F786
S11304B000C000008AE0D8DD8093080184E1D4DD27
S11304C024E6829FC00111249093070180930601C2
S11304D08091080185DF40E06091090180910A0163
S11304E002DF4FE38DE093E0415080409040E1F71C
S11304F000C0000084B1846384B940E060910901C4
S113050080910A01F0DEC7E0D0E001E010E0C8010C
S11305100C2E02C0880F991F0A94E2F790910A01E9
S1130520892B80930A0140E060910901DCDE4FE3EE
S11305308DE093E0415080409040E1F700C000001E
S1130540219728F74FE38DE093E04150804090409D
S1130550E1F700C00000C7E0D0E001E010E0C8010E
S11305600C2E02C0880F991F0A94E2F760910901CA
S1130570682B6093090140E080910A01B4DE4FE3E7
S11305808DE093E0415080409040E1F700C00000CE
S1130590219728F737DE4FE78AE196E04150804003
S11305A09040E1F700C0000067DD7894D12C00E0B2
S11305B0C1E0D0E0FADD80910801811109C04FEF5C
S11305C06091090180910A018EDE8FEF8BB9F2CF21
S11305D0823041F440E06091090180910A0183DE98
S11305E01BB8E8CF13E0ED2CF02E80E033DEE816E4
S11305F0F90608F47C011150C1F713E0AD2CB02EBC
S113060081E028DEA816B90608F45C011150C1F790
S1130610C70111DF182FC5010EDF909110011917C2
S11306206CF120910801233061F41BB89BB19E0149
S1130630012E02C0220F331F0A94E2F7292B2BB993
S113064016C05C2F012E01C0550F0A94EAF74BB176
S11306509E01092E02C0220F331F0A94E2F7242BB5
S11306602BB92BB1252B2BB99F5F191784F7109346
S11306701001D0920D0100930E0141C020910D0193
S113068030910E012F3F4FEF340769F02F5F3F4F3A
S113069030930E0120930D01409106015091070102
S11306A02417350760F120910801233081F41BB829
S11306B0909110019923E9F04BB191509E0102C031
S11306C0220F331F9A95E2F7242B2BB90BC02BB1C1
S11306D0AE0102C0440F551F9A95E2F7942F9095EE
S11306E092239BB9909110019150909310019923FA
S11306F014F410921001D0920D0100930E01909108
S11307000F0189178CF120910801233049F49C2FA3
S1130710082E01C0990F0A94EAF79093050116C0B8
S11307203C2F082E01C0330F0A94EAF720910501EB
S1130730AE01092E02C0440F551F0A94E2F7232B81
S1130740242B9F5F8917A4F72093050180930F0141
S1130750409105016091090180910A01C4DDD092A4
S11307600B0100930C0126CF20910B0130910C0159
S11307702F3F8FEF380771F02F5F3F4F30930C01FD
S113078020930B014091060150910701241735076E
S113079008F410CF80910801833079F4911103C0DB
S11307A0109205011CC08FEF890F2C2F01C0220F5E
S11307B08A95EAF7209305010DC09E01092E02C017
S11307C0220F331F0A94E2F7209580910501282314
S11307D020930501915090930F01992314F41092E2
S11307E00F01409105016091090180910A017BDDAF
S11307F0D0920B0100930C01DDCEAA1BBB1B51E16F
S113080007C0AA1FBB1FA617B70710F0A61BB70B7C
S1130810881F991F5A95A9F780959095BC01CD0121
S11308200895A29FB001B39FC001A39F01D0B29FBE
S1110830700D811D1124911D0895F894FFCFC1
S9030000FC
