S01B00004D6F746F72436F6E74726F6C50726F6A6563742E7372656340
S113000037C051C050C04FC04EC04DC04CC04BC093
S11300104AC049C058C147C046C068C244C043C072
S113002042C041C005C43FC03EC03DC03CC03BC00F
S11300303AC039C04E414E494E495459494E46CDB5
S1130040CCCC3D0AD7233C17B7D13877CC2B32958B
S113005095E6241FB14F0A000020410000C8420069
S1130060401C4620BCBE4CCA1B0E5AAEC59D740033
S113007011241FBECFEFD4E0DEBFCDBF11E0A0E05E
S1130080B1E0E6EEF2E102C005900D92A031B107B5
S1130090D9F721E0A0E1B1E001C01D92AC34B20770
S11300A0E1F714D31EC9ACCFF999FECF92BD81BD3F
S11300B060BDFA9AF99A08951F93CF93DF93EC01E8
S11300C0172FF2DF612FCE010196EEDFDF91CF9182
S11300D01F9108954F925F926F927F928F929F9299
S11300E0AF92BF92CF92DF92EF92FF920F931F9342
S11300F0CF93DF9320912F0130913001890120E0CB
S113010030E068017901C61AD70AE80AF90AC7017A
S1130110B60111D56B017C0126EA3BE944E45BE3BB
S1130120BED520913101309132014091330150917B
S11301303401B5D520911401309115014091160177
S113014050911701F5D3B62EA72E982E892E6091C3
S11301502501709126018091270190912801EBD40B
S1130160D62FC72F182F092F262F372F482F592F57
S11301706B2D7A2D892D982D3FD48823ECF0609136
S11301800001709101018091020190910301D3D487
S1130190762E672E582E492E262F372F482F592F6B
S11301A06B2D7A2D892D982D76D518164CF07B2C35
S11301B06A2C592C482C04C07D2E6C2E512E402EB6
S11301C0872D962DA52DB42D8093140190931501A0
S11301D0A0931601B09317012091100130911101E1
S11301E04091120150911301C701B601A0D326EA30
S11301F03BE944E45BE304D44B015C01C09210018D
S1130200D0921101E0921201F092130120913B016E
S113021030913C0140913D0150913E01C701B6012E
S11302203ED5272D362D452D542D82D36B017C01CF
S113023020912B0130912C0140912D0150912E01E0
S1130240C501B4012CD59B01AC01C701B60170D323
S11302506B017C019B01AC016D2F7C2F812F902FB2
S11302601AD5181634F46D2F7C2F812F902F30D48B
S113027019C0609100017091010180910201909177
S1130280030159D44B015C019B01AC01C701B601C8
S113029002D5181624F4C501B4011AD403C0C70149
S11302A0B60116D4DF91CF911F910F91FF90EF907B
S11302B0DF90CF90BF90AF909F908F907F906F9082
S11302C05F904F9008951F920F920FB60F921124D2
S11302D04F925F926F927F92AF92BF92CF92DF92D2
S11302E0EF92FF920F931F932F933F934F935F933C
S11302F06F937F938F939F93AF93BF93EF93FF93EA
S1130300CF93DF93CDB7DEB72897DEBFCDBF809103
S1130310200181111FC010921F0110921B01109225
S11303201C0110921D0110921E0110921A0180915D
S11303308600909187009093190180931801992366
S11303402CF0B09B03C08FEF80931A0181E080935F
S11303502001A7C0823009F08AC080918600909164
S1130360870099233CF0B09B05C020911A012F5FB0
S113037020931A0140901A01512C612C712C3201E6
S113038055244424480E591E611C711C8091180187
S113039090911901481A590A61087108A301920140
S11303A0550F220B322FA90129833A834B835C8397
S11303B0242D352D462D572D6981762F862F962F86
S11303C0A0E0DFD5D9F180911B0190911C01A0918F
S11303D01D01B0911E019C01AD01550F220B322F5E
S11303E0A9012D833E834F835887A12C0F2EF2E160
S11303F0BF2EF02D0F2EFAE7CF2EF02DD12CE12CAD
S1130400F12C00E010E0282F392F4A2F5B2F6D814B
S1130410762F862F962FA6D4A42CB52CC62CD72C99
S1130420E980FE2C0E2D1E2DF0D420932101309353
S11304302201409323015093240108C0109221010A
S113044010922201109223011092240110921B0198
S113045010921C0110921D0110921E0110921A019B
S11304601092190110921801109220011AC0809163
S11304701B0190911C01A0911D01B0911E010196D8
S1130480A11DB11D80931B0190931C01A0931D011C
S1130490B0931E010A97A105B10519F482E0809377
S11304A0200128960FB6F894DEBF0FBECDBFDF91B2
S11304B0CF91FF91EF91BF91AF919F918F917F91D8
S11304C06F915F914F913F912F911F910F91FF90E9
S11304D0EF90DF90CF90BF90AF907F906F905F9040
S11304E04F900F900FBE0F901F9018951F920F9270
S11304F00FB60F9211248F93809120018150823086
S113050028F480911A018F5F80931A018F910F90C4
S11305100FBE0F901F9018959093300180932F0178
S1130520089580EF95E5A0E0B0E0809300019093FA
S11305300101A0930201B093030180E090E0A0EFD9
S1130540B2E480933B0190933C01A0933D01B093AE
S11305503E0180E090E0A0E2B1E480933101909309
S11305603201A0933301B09334018DEC9CECACECDC
S1130570BDE380932B0190932C01A0932D01B093A4
S11305802E0108958FEF9FEFA0E0B0E0809300016B
S113059090930101A0930201B093030180E090E0E5
S11305A0A0E2B1E480933B0190933C01A0933D0110
S11305B0B0933E0180E090E0A0E0BFE3809331017E
S11305C090933201A0933301B09334018DEC9CECF1
S11305D0ACE4BDE380932B0190932C01A0932D01F7
S11305E0B0932E01089580E995E6A0E0B0E08093F1
S11305F0000190930101A0930201B093030180E0F4
S113060090E0A0E2B2E480933B0190933C01A0937C
S11306103D01B0933E0180E090E0A0EEB0E4809311
S1130620310190933201A0933301B09334018DECE6
S11306309CECACE4BFE380932B0190932C01A0933A
S11306402D01B0932E010895CF93C82F682F70E029
S113065081E090E031DD6C2F70E080E090E069D2C1
S113066060933B0170933C0180933D0190933E0164
S1130670CF910895CF93C82F682F70E08AE090E05F
S11306801BDD6C2F70E080E090E053D26093310169
S1130690709332018093330190933401CF91089584
S11306A0CF93C82F682F70E084E190E005DD6C2FB4
S11306B070E080E090E03DD260932B0170932C01B8
S11306C080932D0190932E01CF91089588E090E0BE
S11306D012D189DF82E794E09093300180932F0157
S11306E080E880BFA1E8B0E081E08C9381E286BB22
S11306F0EFE6F0E08081816280832198229A299834
S11307002A98E0E8F0E080818062808380818360C1
S113071080838C9188618C938FEF9FEF90938900F5
S11307208093880080E197E290938B0080938A0005
S11307307894CAE8D0E060912101709122018091FF
S1130740230190912401C6DC609336017093370134
S1130750809338019093390179836883ECCF0F93A8
S11307601F93CF93DF93CDB7DEB728970FB6F894D6
S1130770DEBF0FBECDBFFE01319688E0DF011D92C2
S11307808A95E9F780914001882339F0DF01E1E49B
S1130790F1E08D9381918111FCCF80913F018936E5
S11307A0E9F028F4823689F18436F9F036C08037CE
S11307B071F0833719F08C3681F51EC0CE01019695
S11307C0FBD38C0110DF60E0C801A6DE26C0CE0199
S11307D00196EFD382D1862F37DF1FC0CE01019659
S11307E0E8D37BD1862F46DF18C0CE010196E1D332
S11307F074D1862F55DF11C0CE010196DDD38C0153
S1130800C1DE60E0C80188DE08C0CE010196D4D301
S11308108C0187DE60E0C8017FDE28960FB6F8946D
S1130820DEBF0FBECDBFDF91CF911F910F91089511
S11308301F920F920FB60F9211242F933F934F9351
S11308405F936F937F938F939F93AF93BF93EF9334
S1130850FF932091C6002D3079F4E0912901F091A5
S11308602A01E15CFE4F10827ADF10922A01109275
S1130870290110923F010DC08091290190912A0114
S1130880FC01E15CFE4F2083019690932A01809342
S11308902901FF91EF91BF91AF919F918F917F912A
S11308A06F915F914F913F912F910F900FBE0F90D9
S11308B01F901895E0ECF0E0908195FFFDCF8093B8
S11308C0C60008950F931F93CF938C01FC01808180
S11308D0882349F0C0E0EEDFCF5FF801EC0FF11D93
S11308E080818111F8CF8DE0E5DF8AE0E3DFCF91ED
S11308F01F910F910895519A2BB123602BB99093B6
S1130900C5008093C400E0ECF0E0808182608083C5
S1130910E2ECF0E0808186608083E1ECF0E08081AD
S11309208869808384E091E0CDDF789408955058FD
S1130930BB27AA270ED075C166D130F06BD120F049
S113094031F49F3F11F41EF45BC10EF4E095E7FB14
S113095051C1E92F77D180F3BA176207730784076F
S1130960950718F071F49EF58FC10EF4E0950B2EE7
S1130970BA2FA02D0B01B90190010C01CA01A001ED
S11309801124FF27591B99F0593F50F4503E68F148
S11309901A16F040A22F232F342F4427585FF3CF89
S11309A0469537952795A795F0405395C9F77EF45A
S11309B01F16BA0B620B730B840BBAF09150A1F0A3
S11309C0FF0FBB1F661F771F881FC2F70EC0BA0F29
S11309D0621F731F841F48F4879577956795B795B1
S11309E0F7959E3F08F0B3CF9395880F08F09927A9
S11309F0EE0F979587950895D9D008F481E008956E
S1130A000CD00FC107D140F0FED030F021F45F3F8D
S1130A1019F0F0C0511139C1F3C014D198F39923DE
S1130A20C9F35523B1F3951B550BBB27AA276217AE
S1130A307307840738F09F5F5F4F220F331F441FF3
S1130A40AA1FA9F333D00E2E3AF0E0E830D091502B
S1130A505040E695001CCAF729D0FE2F27D0660F18
S1130A60771F881FBB1F261737074807AB07B0E857
S1130A7009F0BB0B802DBF01FF2793585F4F2AF06D
S1130A809E3F510568F0B6C000C15F3FECF3983E4D
S1130A90DCF3869577956795B795F7959F5FC9F7CA
S1130AA0880F911D9695879597F90895E1E0660F53
S1130AB0771F881FBB1F621773078407BA0720F0CC
S1130AC0621B730B840BBA0BEE1F88F7E095089535
S1130AD004D06894B111D9C00895BCD088F09F5750
S1130AE090F0B92F9927B751A0F0D1F0660F771F76
S1130AF0881F991F1AF0BA95C9F712C0B13081F056
S1130B00C3D0B1E00895C0C0672F782F8827B85F9D
S1130B1039F0B93FCCF3869577956795B395D9F7B6
S1130B203EF490958095709561957F4F8F4F9F4FC0
S1130B300895E89409C097FB3EF4909580957095CC
S1130B4061957F4F8F4F9F4F9923A9F0F92F96E915
S1130B50BB279395F695879577956795B795F1118A
S1130B60F8CFFAF4BB0F11F460FF1BC06F5F7F4F27
S1130B708F4F9F4F16C0882311F096E911C0772339
S1130B8021F09EE8872F762F05C0662371F096E842
S1130B90862F70E060E02AF09A95660F771F881F11
S1130BA0DAF7880F9695879597F90895990F0008B5
S1130BB0550FAA0BE0E8FEEF16161706E807F9072B
S1130BC0C0F012161306E407F50798F0621B730BC6
S1130BD0840B950B39F40A2661F0232B242B252B47
S1130BE021F408950A2609F4A140A6958FEF811DEA
S1130BF0811D089597F99F6780E870E060E008958B
S1130C009FEF80EC089500240A9416161706180620
S1130C100906089500240A941216130614060506FC
S1130C200895092E0394000C11F4882352F0BB0F8D
S1130C3040F4BF2B11F460FF04C06F5F7F4F8F4FF0
S1130C409F4F089557FD9058440F551F59F05F3F2B
S1130C5071F04795880F97FB991F61F09F3F79F0DA
S1130C6087950895121613061406551FF2CF46955C
S1130C70F1DF08C0161617061806991FF1CF8695DE
S1130C807105610508940895E894BB2766277727C2
S1130C90CB0197F908958ADF08F48FEF08950BD0FC
S1130CA0C0CFB1DF28F0B6DF18F0952309F0A2CF4A
S1130CB0A7CF1124EACFC6DFA0F3959FD1F3950FF8
S1130CC050E0551F629FF001729FBB27F00DB11DCC
S1130CD0639FAA27F00DB11DAA1F649F6627B00D5C
S1130CE0A11D661F829F2227B00DA11D621F739F45
S1130CF0B00DA11D621F839FA00D611D221F749F53
S1130D003327A00D611D231F849F600D211D822F99
S1130D10762F6A2F11249F5750408AF0E1F08823E0
S1130D204AF0EE0FFF1FBB1F661F771F881F9150ED
S1130D305040A9F79E3F510570F05CCFA6CF5F3FAE
S1130D40ECF3983EDCF3869577956795B795F79520
S1130D50E7959F5FC1F7FE2B880F911D96958795A8
S1130D6097F90895DF93CF931F930F939A9DF02DD6
S1130D70219FF00D8B9DF00D8A9DE02DF10D039FB9
S1130D80F00D029FE00DF11D4E9DE00DF11D5E9DE5
S1130D90F00D4F9DF00D7F936F93BF92AF925F93D1
S1130DA04F93D501FAD08B01AC01D701F6D0EB01FA
S1130DB0E80FF91FD6011FD02F913F91D601EDD036
S1130DC0C60FD71FE81FF91FAF91BF9114D02F9101
S1130DD03F91E3D0C60FD71FE81FF91FD601DDD01E
S1130DE0E60FF71F9801BE01CF0111240F911F9147
S1130DF0CF91DF910895D1D0460F571FC81FD91F37
S1130E0008F431960895689401C0E894F92FF12B01
S1130E100AF027C0A0E0B0E0EFE0F7E081C0092EBF
S1130E2005941AF467D0112392F4F0E80F26FFEF2B
S1130E30E094F09400951095B094C094D094A1944B
S1130E40BF0ACF0ADF0AEF0AFF0A0F0B1F0B13D0EA
S1130E5007FC50D0CDB7DEB7ECE07EC0689401C08B
S1130E60E8948F929F92CF93DF9305D0DF91CF9137
S1130E709F908F90089588249924F401E401B0E4AC
S1130E801B2ED4019D158E049F04E007F10738F44E
S1130E90FC014B01CA01B901AD019E011694220F58
S1130EA0331F441F551F661F771F881F991F881CF7
S1130EB0991CEE1FFF1FCC1FDD1FAA1FBB1F8A1426
S1130EC09B04EC05FD05CE05DF05A007B10748F03E
S1130ED08A189B08EC09FD09CE09DF09A00BB10BA8
S1130EE021601A94E1F62EF49401AF01BE01CD0104
S1130EF0000C089560957095809590953095409577
S1130F00509521953F4F4F4F5F4F6F4F7F4F8F4FFE
S1130F109F4F08952F923F924F925F926F927F92CC
S1130F208F929F92AF92BF92CF92DF92EF92FF92F5
S1130F300F931F93CF93DF93CDB7DEB7CA1BDB0BA1
S1130F400FB6F894DEBF0FBECDBF09942A88398846
S1130F5048885F846E847D848C849B84AA84B9844D
S1130F60C884DF80EE80FD800C811B81AA81B98159
S1130F70CE0FD11D0FB6F894DEBF0FBECDBFED016D
S1130F8008950024A7FD00942A1730054005500554
S1130F9060057005800590050895A29FB001B39F78
S1130FA0C001A39F01D0B29F700D811D1124911D1A
S1130FB008956627772725C0FC0188279927E89498
S1130FC021912032E9F3293010F02E30C8F32B326E
S1130FD039F02D3231F4689403C00BD0820F911D87
S1130FE0219120532A30C8F31EF4909581959F4F88
S1130FF008957AE0979F902D879F802D910D11245D
S11310000895A0E0B0E0E6E0F8E08ACFEC016B01DF
S11310106115710519F0FB01918380837E01FFEF57
S1131020EF1AFF0A0881802F90E02ED1892B11F04E
S1131030E701F4CF0D3239F47E0182E0E80EF11CB1
S1131040098111E008C00B3229F47E0192E0E90E17
S1131050F11C098110E0E701219743E050E06CE3C3
S113106070E0CE0119D1892BB9F4239645E050E004
S113107067E370E0CE0110D1892B09F42596C114E1
S1131080D10419F0F601D183C0831111F0C060E0DE
S113109070E080E89FE7F4C043E050E064E370E070
S11310A0CE01FAD0892B59F4C114D10409F4E4C057
S11310B0F2E0EF0EF11CF601F182E082DDC020E0E7
S11310C030E0A901C0E0D0E0F70180EDA82EA00E29
S11310D089E08A1528F1912F9260B92E812F8870AA
S11310E012FF04C0811123C0219621C081112197D0
S11310F0A5E0B0E0ECD0DC01CB01880F991FAA1F5A
S1131100BB1F9C01AD012A0D311D411D511D283904
S113111089E93807480789E1580748F0166006C08E
S11311209EEFA9120AC013FD40C01860B12E8FEFC4
S1131130E81AF80A00811B2DC7CF802F8F7D8534D4
S1131140A1F580818D3211F4106106C08B3221F03B
S1131150319661E070E004C08181329662E070E013
S113116080538A3018F0E61BF70B1FC060E070E074
S113117060389CE079075CF4DB01AA0FBB1FAA0F5F
S1131180BB1F6A0F7B1F660F771F680F711D319697
S1131190DF0111978C9180538A3050F314FF03C000
S11311A0719561957109C60FD71F11FF08C0C1144D
S11311B0D10429F0CF010197F60191838083CA01FC
S11311C0B901B7DC212F2370233019F04B015C01E6
S11311D006C04B015C01B7FAB094B7F8B09420E0B4
S11311E030E0A901C501B40107DC882309F43CC03F
S11311F0D7FF06C0D195C195D10903E510E002C01F
S11312000BE610E06801F8E1CF1AD10890E2E92E6C
S1131210F12CCE15DF056CF0F8012591359145913F
S11312205491C501B4013BDD4B015C01CE19DF09CA
S1131230F0CF04501109F594E7940C151D0549F7F6
S11312408A2D880F8B2D881F8F3F41F020E030E0DE
S1131250A901C501B401D0DB811106C082E290E08E
S113126090934B0180934A01C501B40109C060E029
S113127070E080E89FEF04C060E070E080EC9FE7DE
S1131280CDB7DEB7ECE068CE91111EC0803219F004
S113129089508550D0F70895FB01DC01415050403E
S11312A088F08D9181341CF08B350CF4805E65914F
S11312B061341CF06B350CF4605E861B611171F3B4
S11312C0990B0895881BFCCF99278827089565DE1C
S11312D0A59F900DB49F900DA49F800D911D112486
S10912E00895F894FFCF0D
S11312E6FFFF0000696E6974006772617068200010
S9030000FC
