S01800004D61696E626F61726450726F6A6563742E73726563A8
S113000021C03BC03AC039C038C037C036C035C043
S113001034C033C032C031C030C02FC02EC02DC058
S11300202CC02BC02AC029C028C027C026C025C088
S113003031C023C05AC25DC274C29AC276C286C29B
S11300408EC291C211241FBECFEFD4E0DEBFCDBF5C
S113005011E0A0E0B1E0EEEFF5E002C005900D92F2
S1130060A031B107D9F721E0A0E1B1E001C01D92B0
S1130070A636B207E1F77ED2C0C2C2CF8EE5809326
S1130080BA0085EC8093BC00ECEBF0E0808188231F
S1130090ECF708951F920F920FB60F9211248F93CD
S11300A09F93EF93FF938091B900887F809315010C
S11300B080911501883AB9F138F4803879F0803AA2
S11300C039F1811151C04CC0803C09F441C0883CD5
S11300D009F442C0883B09F047C027C09091BB0097
S11300E080911101811106C09093120181E08093E7
S11300F011010AC080911001E82FF0E0E050FF4F99
S113010090838F5F8093100185EC8093BC002FC097
S1130110109211011092100181E08093140185EC7A
S11301208093BC0024C0109213011092BB008091F4
S113013013018F5F8093130180911301823021F4A6
S113014085E88093BC0013C085EC8093BC000FC08D
S113015085EC8093BC000BC085EC8093BC0007C089
S113016085ED8093BC0003C085EC8093BC00FF91B7
S1130170EF919F918F910F900FBE0F901F90189544
S113018080911401882399F080911201813019F033
S1130190823029F009C08091000148D105C0E0E017
S11301A0F1E06181808196D11092140181E008957B
S11301B0892BC1F0E4E0F1E060E171E041E050E05E
S11301C02BB180813296DA0102C0AA0FBB1F8A9537
S11301D0E2F7CD01822B8BB96E177F0789F72E9A30
S11301E02F9A0895E4E0F1E060E171E041E050E02D
S11301F09BB1808132969A0102C0220F331F8A95E7
S1130200E2F7822F809589238BB9E617F70781F7E8
S11302102E982F980895CF93C62F882391F180E0CC
S113022090E0C6DFEC2FF0E0EE0FFF1FEE0FFF1F94
S1130230EA5BFE4FA081B1814C9181E090E09C018A
S1130240028002C0220F331F0A94E2F7242B2C935E
S1130250AFE5BAEE1197F1F700C00000A081B181BB
S11302602C91028002C0880F991F0A94E2F78095AE
S113027082238C938FE59AEE0197F1F700C000007A
S113028032C081E090E094DFEC2FF0E0EE0FFF1F2E
S1130290EE0FFF1FEA5BFE4FA081B1813C9181E02C
S11302A090E0AC01028002C0440F551F0A94E2F7AB
S11302B0242F209523232C93AFE5BAEE1197F1F761
S11302C000C00000A081B1812C91028002C0880F7F
S11302D0991F0A94E2F7822B8C938FE59AEE01978B
S11302E0F1F700C00000CF9108958823B1F0E62F04
S11302F0F0E0EE0FFF1FEE0FFF1FE65EFE4FA08142
S1130300B1812C9181E090E0028002C0880F991F96
S11303100A94E2F7822B8C930895E62FF0E0EE0F17
S1130320FF1FEE0FFF1FE65EFE4FA081B1812C91EF
S113033081E090E0028002C0880F991F0A94E2F7DE
S1130340809582238C930895EAE1F1E085E090E0C2
S11303509383828325E230E031832083259A1782B8
S1130360168288E290E095838483389AA1E0B0E015
S1130370B387A28791878087399A42E050E05787F4
S11303804687958784873A9A63E070E0738B628B23
S1130390918B808B3B9A178A168A358B248B209AF3
S11303A0B38FA28F318F208F219A578F468F358F2D
S11303B0248F229A73A362A331A320A3239A3B9A86
S11303C03A9A0895E6E4F1E083E090E0938382832F
S11303D08BE290E091838083539A24E030E037836A
S11303E0268395838483549A25E030E033872287DB
S11303F091878087559A46E050E0578746879587CE
S11304008487569A27E030E0338B228B918B808B44
S1130410579A578B468B85E290E0958B848B269A6E
S1130420338F228F918F808F279A0895CF93C82F6F
S1130430893089F0882309F444C065E080E0EBDE6C
S113044088EF8C0F823038F064E080E0E4DE66E010
S113045081E0E1DE36C0C13011F128F0C83079F016
S1130460C93061F51CC064E081E0D5DE66E080E05F
S1130470D2DE65E081E0CFDE1092030129C062E0A4
S113048081E033DF64E081E0C6DE66E080E0C3DE65
S113049060E080E0C0DE88E08093030119C081E061
S11304A090E0A0E0B0E08093160190931701A09330
S11304B01801B0931901C09303010AC0C09303014A
S11304C007C060E081E0A7DE62E080E00EDFC3CF1A
S11304D0CF910895CF9390E08830910508F048C0FB
S11304E0C62FFC01E65EFF4F099461E08C2FFDDE10
S11304F03FC0611104C063E080E08DDE39C061302B
S113050039F463E081E087DE60E080E0EEDE30C055
S1130510623071F563E081E07EDE60E081E0E5DE7B
S113052027C062E08C2F77DE23C065E08C2F8870B3
S1130530DCDE66E08C2F8470D8DE67E08C2F81705F
S1130540D4DE68E08C2F8270D0DE12C064E08C2F81
S11305508170CBDE63E08C2F8270C7DE09C061E05E
S11305608C2F59DE05C081E0611180E065E053DE27
S1130570CF9108952FEF80E792E021508040904082
S1130580E1F700C000007ADD78941CDFDDDE80E056
S113059090E00EDE82E04ADF62E080E0A6DE509862
S11305A0589A65E081E037DEEBDD80911601909189
S11305B01701A0911801B09119010097A105B10587
S11305C099F30196A11DB11D809316019093170113
S11305D0A0931801B093190180389A41A640B1053F
S11305E019F765E081E017DE1092160110921701E9
S11105F01092180110921901D7CFF894FFCF82
S11305FE20000002020003000400050006000700AC
S9030000FC
