:100000000C94000D0C94EA330C941D0D0C941D0DF2
:100010000C941D0D0C941D0D0C941D0D0C941D0DB8
:100020000C941D0D0C941D0D0C941D0D0C941D0DA8
:100030000C941D0D0C941D0D0C941D0D0C941D0D98
:100040000C941D0D0C941D0D0C941D0D0C941D0D88
:100050000C941D0D0C941D0D0C941D0D0C941D0D78
:100060000C941D0D0C941D0DD028C628C128CB283A
:10007000E1281029E628FB281429D028CB28E128DC
:10008000AA33AD33B033B433B833BC33C033C43325
:10009000C833CC332B192B232C0D2C182D0B2D13DF
:1000A0002E0A2E142F092F0C2F122F153009300B6A
:1000B000301330153108310A311431163208320A42
:1000C00032143216322D322D3308330A330F330FE8
:1000D00033143316332E332E3408340A34143416C2
:1000E000341F3420342F342F3508350A3514351693
:1000F000351D351E353035303609360B361336157D
:10010000361B361D363136313709370C3712371565
:100110003719371A371D371D37323732380A381436
:1001200038163818381D381D38333833390A391520
:10013000391D391D393339333A0A3A0A3A0D3A141E
:100140003A1D3A1D3A343A343B093B093B143B14FF
:100150003B1D3B1D3B353B353C093C093C153C15E3
:100160003C1E3C1E3C363C363D093D093D153D15C7
:100170003D1E3D1E3D373D373E093E093E153E15AD
:100180003E1E3E1E3E383E383F083F083F153F1595
:100190003F1E3F1E3F383F3840084008401640167B
:1001A000401E401E4039403941084108410D41116F
:1001B00041164116411E411E413A413A4208420849
:1001C000420C421242164216421E421E423A423A25
:1001D00043084308430B430D43114313431643168F
:1001E000431E431E44074407440A440C441244146B
:1001F00044174417441E441E45074507450A450B4E
:100200004513451445174517451E451E4607460725
:10021000460A460B460F460F461346144617461726
:10022000461E461E47074707470A470B4713471412
:1002300047174717471E471E48074807480A480CF4
:100240004812481448174817481E481E49064906D0
:10025000490B490D4911491349184918491E491EAE
:100260004A064A064A0C4A124A184A184A1E4A1EA8
:100270004B064B064B0D4B114B184B184B1E4B1E90
:100280004C064C064C184C184C1E4C1E4D054D058A
:100290004D194D194E054E054E194E194F054F0576
:1002A0004F194F1950055005501950195105510556
:1002B000511A511A52045204521A521A5304530436
:1002C000531A531A54045404541A541A5504550416
:1002D000551B551B56035603561B561B57035703F6
:1002E000571B571B58035803581B581B59035903D6
:1002F000591B591B5A035A035A1B5A1B5B025B02B8
:100300005B1B5B1C5C025C025C1C5C1C5D025D0296
:100310005D1C5D1C5E025E025E1C5E1C5F025F0275
:100320005F1C5F1C60026002601C601C6102610255
:10033000611C611C2C1E2C202D1D2D1E3018301907
:100340003116311732153215322D322D3313331445
:10035000332E332E3412341234243424342F342FD9
:10036000351035113523352335303530360E360FFF
:100370003622362236313631370D3712371E371EC8
:100380003721372137323732380B3813381E381EB1
:100390003820382038333833390A3914391E391F98
:1003A000393339333A093A0C3A123A153A1D3A1EA2
:1003B0003A343A343B093B0B3B133B153B1C3B1C8B
:1003C0003B1E3B1E3B353B353C083C0A3C143C166F
:1003D0003C1B3C1B3C1E3C1E3C363C363D083D0A4B
:1003E0003D143D163D1A3D1A3D1E3D1E3D373D371D
:1003F0003E083E0A3E0F3E0F3E143E163E193E1981
:100400003E1E3E1E3E383E383F083F0A3F143F1610
:100410003F183F183F1E3F1E3F383F384008400AF4
:1004200040144017401E401E403940394109410BDD
:1004300041134116411E411E413A413A4209420CC4
:1004400042124215421E421E430A4314431E431EDB
:10045000440A4414441E441E450A450A450D4511EC
:1004600045154515451E451E46094609460D4611CA
:1004700046154615461E461E47094709470C4712B2
:1004800047154715471E471E48094809480B480DA0
:100490004811481348164816481E481E490849087E
:1004A000490A490C4912491449164916491E491E60
:1004B0004A084A084A0A4A0B4A134A144A164A1674
:1004C0004A1E4A1F4B084B084B0A4B0B4B0F4B0F56
:1004D0004B134B144B174B174B1E4B1F4C074C0722
:1004E0004C0A4C0B4C134C144C174C174C1E4C1F05
:1004F0004D074D074D0A4D0C4D124D144D174D171C
:100500004D1F4D1F4E074E074E0B4E0D4E114E13F5
:100510004E184E184E1F4E1F4F064F064F0C4F12CF
:100520004F184F184F1F4F1F50065006500D5011B7
:1005300050195019510551055119511952055205BB
:100540005219521953055305531A531A540454049B
:10055000541A541A55045504551A551A560456047B
:10056000561B561B57035703571B571B580358035B
:10057000581B581B59035903591B591B5A035A033B
:100580005A1B5A1B5B025B035B1B5B1C5C025C021D
:100590005C1C5C1C5D025D025D1C5D1C5E025E02FB
:1005A0005E1C5E1C5F025F025F1C5F1C60026002DB
:1005B000601C601C61026102611C611C2B212B22EA
:1005C0002C1D2C212D1A2D1D2E172E1C2F132F16EE
:1005D000300D3012310B3113320A3214322D322DDC
:1005E0003309330C3312331533213322332E332E98
:1005F0003409340B3413341534203420342F342F81
:100600003508350A35143516351F351F3530353068
:100610003608360A36143616361E361E3631363150
:100620003708370A370F370F37143716371D371E7D
:10063000373237323808380A38143816381B381D24
:10064000383338333908390A39143916391A391A0E
:10065000391D391D393339333A093A0B3A133A15F2
:100660003A183A193A1D3A1D3A343A343B093B0CD0
:100670003B123B173B1D3B1D3B353B353C0A3C15B4
:100680003C1D3C1D3D0B3D133D1D3D1D3E0A3E0ADC
:100690003E0D3E113E133E133E1D3E1D3F0A3F0AD6
:1006A0003F143F143F1E3F1E400A400A40144014AE
:1006B000401E401E410A410A41144114411E411E80
:1006C0004209420942144214421E421E4309430990
:1006D00043154315431E431E44094409440D441168
:1006E0004415441545084508450C45124515451562
:1006F00046084608460B460D461146134616461652
:1007000047084708470A470C471247144716471639
:1007100048074807480A480B481348144816481623
:1007200049074907490A490B490F490F4913491419
:10073000491649164A074A074A0A4A0B4A134A14F5
:100740004A174A174B074B074B0A4B0C4B124B14DB
:100750004B174B174C064C064C0B4C0D4C114C13C5
:100760004C174C174D064D064D0C4D124D174D179D
:100770004E064E064E0D4E114E184E184F054F05A3
:100780004F184F1850055005501850185105510575
:100790005119511952045204521952195304530455
:1007A0005319531954045404541954195504550435
:1007B000551A551A56035603561A561A5703570315
:1007C000571A571A58035803581A581B59035903F4
:1007D000591A591B5A035A035A1B5A1B5B025B03D3
:1007E0005B1B5B1C5C025C035C1C5C1C5D025D02B1
:1007F0005D1C5D1C5E025E025E1C5E1C5F025F0291
:100800005F1C5F1C60026002601C601C6102610270
:10081000110C1112120912151308130C13131316CD
:10082000140714091415141715061507150D1511BD
:100830001517151816051606160B160C1612161394
:1008400016181619170417051709170A171417157C
:100850001719171A18031805180818081816181663
:100860001819181B1903190419081908191619164B
:10087000191A191B1A031A041A071A071A171A1732
:100880001A1A1A1B1B021B031B071B071B171B171C
:100890001B1B1B1C1C021C031C061C061C181C1802
:1008A0001C1B1C1C1D021D031D061D061D181D18EA
:1008B0001D1B1D1C1E021E031E061E061E181E18D2
:1008C0001E1B1E1C1F021F031F061F061F181F18BA
:1008D0001F1B1F1C200220032006200620182018A2
:1008E000201B201C2102210321072107211721178A
:1008F000211B211C22032204220722072217221770
:10090000221A221B23032304230823082316231659
:10091000231A231B24032405240824082416241640
:100920002419241B250425052509250A2514251528
:100930002519251A26052606260B260C261226130F
:10094000261826192621262527062707270D2711D1
:1009500027172718271F27272807280928152817AA
:10096000281D28292908290B29132916291C292A79
:100970002A092A152A1C2A202A262A2A2B0C2B125D
:100980002B1B2B1F2B222B242B272B2B2C1B2C1E02
:100990002C202C212C252C262C282C2B2D1A2D1DDF
:1009A0002D202D202D262D262D292D2C2E1A2E1DC5
:1009B0002E1F2E1F2E272E272E292E2C2F1A2F1DAD
:1009C0002F1F2F1F2F232F232F272F272F292F2C88
:1009D000301A301D301F301F302730273029302C7F
:1009E000311A311D31203120312631263129312C67
:1009F000321B321E32203221322532263228322B4F
:100A0000331B331F332233243327332B341C34203E
:100A10003426342A351C352A361D3629371E372709
:100A2000382138253A2A3A303B273B333C253C369F
:100A30003D243D293D313D373E233E263E343E3860
:100A40003F223F253F353F38402140244036403942
:100A5000412041234137413A422042224238423A22
:100A6000431F43214339433B441F44214439443B02
:100A7000451F4521452C452E4539453B461E462000
:100A8000462A462B462F4630463A463C471E4720CC
:100A9000472A472A47304730473A473C481E4820B4
:100AA0004829482948314831483A483C491E49209C
:100AB00049294929492D492D49314931493A493C6A
:100AC0004A1E4A204A294A294A314A314A3A4A3C6E
:100AD0004B1E4B204B2A4B2A4B304B304B3A4B3C56
:100AE0004C1E4C204C2A4C2B4C2F4C304C3A4C3C3E
:100AF0004D1F4D214D2C4D2E4D394D3B4E1F4E213E
:100B00004E394E3B4F1F4F214F394F3B5020502203
:100B10005038503A510C5112512051235137513A0B
:100B20005209521552215224523652395308530B4E
:100B3000531353165322532553355338540754092E
:100B40005415541754235426543454375506550716
:100B5000550D5511551755185524552955315536EC
:100B600056055606560B560C56125613561856195D
:100B700056255635570457055709570A5714571520
:100B80005719571A57275733580358055808580804
:100B9000581658165819581B582A583059035904D2
:100BA0005908590859165916591A591B5A035A0403
:100BB0005A075A075A175A175A1A5A1B5B025B03ED
:100BC0005B075B075B175B175B1B5B1C5C025C03D3
:100BD0005C065C065C185C185C1B5C1C5D025D03BB
:100BE0005D065D065D185D185D1B5D1C5E025E03A3
:100BF0005E065E065E185E185E1B5E1C5F025F038B
:100C00005F065F065F185F185F1B5F1C6002600372
:100C10006006600660186018601B601C610261035A
:100C20006107610761176117611B611C6203620440
:100C30006207620762176217621A621B630363042A
:100C40006308630863166316631A631B6403640511
:100C500064086408641664166419641B65046505F9
:100C60006509650A651465156519651A66056606E0
:100C7000660B660C661266136618661967066707C8
:100C8000670D67116717671868076809681568179F
:100C90006908690B691369166A096A156B0C6B128E
:100CA0000310000000000000000000000000000031
:100CB00000000000000000000000800000000000B4
:100CC000000005100000000030003000300060001F
:100CD0006000600060006000C000C000C000000054
:100CE00000000000091000003E00410041004100EA
:100CF000410041000000410041004100410041002D
:100D00003E0000000000091000000000010001008A
:100D100001000100010000000100010001000100CC
:100D20000100000000000000091000003E0001006A
:100D300001000100010001003E00400040004000B1
:100D4000400040003E0000000000091000003E008E
:100D5000010001000100010001003E00010001004E
:100D60000100010001003E00000000000910000029
:100D70000000410041004100410041003E000100EF
:100D80000100010001000100000000000000091046
:100D900000003E00400040004000400040003E0097
:100DA000010001000100010001003E000000000000
:100DB000091000003E00400040004000400040009C
:100DC0003E00410041004100410041003E00000062
:100DD0000000091000003E000100010001000100B8
:100DE00001000000010001000100010001000000FD
:100DF00000000000091000003E00410041004100D9
:100E0000410041003E0041004100410041004100DD
:100E10003E0000000000091000003E0041004100BB
:100E20004100410041003E000100010001000100BD
:100E300001003E0000000000060800000000000065
:100E40000000060800000000000000000608000086
:100E50000000000000000608000000000000000084
:100E60000608000000000000000006080000000066
:100E70000000000006080000000000000000060856
:100E80000000000000000000060800000000000054
:100E90000000060800000000000000000608000036
:100EA0000000000000000608000000000000000034
:100EB0000608000000000000000006080000000016
:100EC0000000000006080000000000000000060806
:100ED0000000000000000000060800000000000004
:100EE00000000608000000000000000006080000E6
:100EF00000000000000006080000000000000000E4
:100F000006080000000000000000060800000000C5
:100F100000000000060800000000000000000608B5
:100F200000000000000000000608000000000000B3
:100F30000000060800000000000000000608000095
:100F40000000000000000608000000000000000093
:100F50000608000000000000000006080000000075
:100F60000000000006080000000000000000060865
:100F70000000000000000000060800000000000063
:100F800000000608202020202000200006084848F5
:100F900048000000000006085050F850F85050007B
:100FA00006082078A07028F020000608C0C810208D
:100FB0004098180006086090A040A89068000608B5
:100FC0006020400000000000060810204040402043
:100FD00010000608402010101020400006080050A5
:100FE00020F8205000000608002020F820200000F3
:100FF000060800000000006020400608000000F81D
:101000000000000006080000000000004000060884
:10101000000810204080000006080000705050506A
:1010200070000608000020200020200006080000B4
:101030007010704070000608000070107010700092
:1010400006080000505070101000060800007040A4
:1010500070107000060800007040705070000608A4
:101060000000701010101000060800007050705042
:101070007000060800007050701070000608000034
:101080000040000040000608000060600060204052
:101090000608102040804020100006080000F800DC
:1010A000F80000000608804020102040800006085C
:1010B0007088081020002000060870880868A8A81A
:1010C00070000608708888F8888888000608F0880C
:1010D00088F08888F000060870888080808870001A
:1010E0000608E09088888890E0000608F88080F084
:1010F0008080F8000608F88080F080808000060874
:1011000070888080988878000608888888F88888A1
:101110008800060870202020202070000608381063
:1011200010101090600006088890A0C0A090880061
:101130000608808080808080F800060888D8A8A8EB
:101140008888880006088888C8A8988888000608C3
:1011500070888888888870000608F08888F0808009
:101160008000060870888888A89068000608F088C3
:1011700088F0A09088000608708880700888700049
:101180000608F8202020202020000608888888886B
:10119000888870000608888888888850200006089B
:1011A000888888A8A8A850000608888850205088F9
:1011B0008800060888888850202020000608F80843
:1011C00010204080F8000608003020202020203029
:1011D00006080080402010080000060800C04040BB
:1011E000404040C00608205088000000000006086B
:1011F00000000000000000F8060840201000000079
:1012000000000608000070087888780006088080D2
:10121000B0C88888F00006080000708080887000E0
:101220000608080868988888780006080000708812
:10123000F88070000608304840E040404000060852
:10124000000078888878087006088080B0C8888890
:10125000880006082000602020207000060810008A
:101260003010101090600608000090A0C0A0900000
:101270000608602020202020700006080000D0A86A
:101280008888880006080000B0C88888880006089A
:10129000000070888888700006080000F08888F0D8
:1012A0008080060800007888887808080608000012
:1012B000B0C8808080000608000078807008F000C8
:1012C00006084040E040404830000608000088889A
:1012D0008898680006080000888888502000060862
:1012E00000008888A8A850000608000088502050F8
:1012F00088000608000088888878087006080000C2
:10130000F8102040F800060810202040202010008F
:101310000608202020202020200006084020201041
:101320002020400006086890000000000000060829
:10133000000000000000000006080000000000009F
:101340000000060800000000000000000608000081
:10135000000000000000060800000000000000007F
:101360000608000000000000000006080000000061
:101370000000000006080000000000000000060851
:10138000000000000000000006080000000000004F
:101390000000060800000000000000000608000031
:1013A000000000000000060800000000000000002F
:1013B0000608000000000000000006080000000011
:1013C0000000000006080000000000000000060801
:1013D00000000000000000000608000000000000FF
:1013E00000000608000000000000000006080000E1
:1013F00000000000000006080000000000000000DF
:1014000006080000000000000000060800000000C0
:1014100000000000060800000000000000000608B0
:1014200000000000000000000608000000000000AE
:101430000000060800000000000000000608000090
:10144000000000000000060800000000000000008E
:101450000608000000000000000006080000000070
:101460000000000006080000000000000000060860
:10147000000000000000000006080000000000005E
:101480000000060800000000000000000608000040
:10149000000000000000060800000000000000003E
:1014A0000608000000000000000006080000000020
:1014B0000000000006080000000000000000060810
:1014C000000000000000000006085000F880F080D6
:1014D000F8000608000000000000000006080000F8
:1014E00000000000000006080000000000000000EE
:1014F00006080000000000000000060800000000D0
:1015000000000000060800000000000000000608BF
:1015100000000000000000000608000000000000BD
:10152000000006080000000000000000060800009F
:10153000000000000000060800000000000000009D
:10154000060800000000000000000608000000007F
:10155000000000000608000000000000000006086F
:101560000000000000000000060850007088F880AD
:1015700070000608000000000000000006080000DF
:10158000000000000000060800000000000000004D
:10159000060800000000000000000608000000002F
:1015A000000000000608000000000000000006081F
:1015B00000000000000000000608708888F8888895
:1015C00088000608F88080F08888F0000608F08817
:1015D00088F08888F0000608F8808080808080008D
:1015E00006083050505050F888000608F88080F007
:1015F0008080F8000608A8A8A870A8A8A800060877
:1016000070880810088870000608888898A8C8881C
:1016100088000608A88898A8C888880006088888CE
:1016200090E0908888000608384888888888880074
:10163000060888D8D8A8A88888000608888888F866
:10164000888888000608708888888888700006085E
:10165000F8888888888888000608F0888888F0805C
:101660008000060870888080808870000608F82056
:101670002020202020000608888888887808F0002C
:10168000060870A8A8A8A87020000608888850201E
:10169000508888000608888888888888F80806089E
:1016A00088888888F80808000608A8A8A8A8A8A814
:1016B000F8000608A8A8A8A8A8A8F8080608C04026
:1016C0004070484870000608888888C8A8A8C800E4
:1016D0000608404040704848700006087088083886
:1016E00008887000060890A8A8E8A8A89000060836
:1016F000788888887848880006080000700878880C
:1017000078000608186080F08888700006080000DD
:10171000F088F088F00006080000F88080808000E3
:1017200006080000305050F8880006080000F880D5
:10173000F880F80006080000A8A870A8A80006080D
:101740000000708810887000060800008898A8C8FB
:101750008800060870008898A8C88800060800005D
:101760008890E09088000608000038488888880043
:101770000608000088D8A888880006080000888825
:10178000F8888800060800007088888870000608BD
:101790000000F8888888880006080000F088F0803B
:1017A000800006080000F8808080F800060800002D
:1017B000F820202020000608000088887808F00023
:1017C0000608000070A8A8702000060800008850D5
:1017D000205088000608000088888888F8080608D5
:1017E00000008888F808080006080000A8A8A8A833
:1017F000F80006080000A8A8A8A8F8080608000035
:10180000C04070487000060800008888C8A8C8005A
:10181000060800004040704870000608000070880C
:10182000388870000608000090A8E8A89000060814
:101830000000788878488800FD6BE23A256400EF64
:10184000EEE4EC3A25303264006B3AEFF0006B3A8C
:10185000EBE5E200CDE0E6EC2E20E2FBE1EEF0006D
:10186000CFF0E8E2FFE7EAE020C4D300F7E0F1F2CE
:101870003A256400F7E0F1F23A256400FD6BE23AA4
:10188000256400EFEEE4EC3A2530326400EEF2EA33
:10189000EB2EE7E23A256400F4E8EAF12EF3F03AA1
:1018A000256400D3F0EEE2E5EDFC00CDE0F2FFE6CA
:1018B000E5EDE8E500C8EDE4E8EAE0F2EEF0FB0073
:1018C000CFF0E8E2FFE7EAE020C4D300D1EAEEF08F
:1018D000EEF1F2FC00D3F0EEE2E5EDFC00CDE0F13C
:1018E000F2F02E20F1E5F0E200C2FBEAEBFEF7E5B4
:1018F000EDE8E52E2E2E00F1E5F0E2EE3A2573003C
:10190000EFEEE8F1EA00EFE0F3E7E000EDE0E7E01A
:10191000E400E2EFE5F000F1F2EEEF00E2EEF1EFCD
:10192000F000ECE0EAF100ECE8ED00EDE0F2FFE6BB
:101930002EEFF02E00E2EEF1EFF02E00EFE5F0E5F5
:10194000EC2E00EDE0F2FFE62EEB2E00EDE0F23A99
:1019500000F12EECEEF23A256400F12EF1E5F0E212
:101960003A256400EA3A25640025303364002530C6
:10197000336400EAEEFDF43A257300440049005058
:1019800000EDE0F2FFE62EEDE0E7E0E400EDE0F24E
:10199000FFE62EE2EFE5F000EDE0F2FFE62EE2EEEC
:1019A000F1EFF000C2F0E5ECFF20EEF2EEE1F02EF8
:1019B00000CEF2EEE1F02E20EFE8EAE800EAED3AA0
:1019C000257300EFEEE2F200EFE0F300E2EFE5F066
:1019D00000EDE0E700E2EEF1EF00F1F2EEEF00F8EB
:1019E000EF00FDEA00EAEEEDF2F000E2EAEB00E2E1
:1019F000FBEAEB00256325733A2530336425630049
:101A000011241FBECFEFD8E0DEBFCDBF11E0A0E0B4
:101A1000B1E0E6E1FDE702C005900D92AA37B107FB
:101A2000D9F728E0AAE7B1E001C01D92A830B207BB
:101A3000E1F70E94F9340C94893E0C9400006F92F7
:101A40007F928F929F92AF92BF92CF92DF92EF924E
:101A5000FF920F931F93CF93DF9300D000D0CDB7A9
:101A6000DEB783E0898382E08A8381E08B831C82F6
:101A700000E010E0812C912C0F2EF0EE6F2EF2E0A2
:101A80007F2EF02D580183E0A80EB11CF501E05F18
:101A9000F74F2491680192E0C90ED11CF601E05F76
:101AA000F74F44917801EFEFEE1AFE0AF701E05F7D
:101AB000F74F6491F801E05FF74F849130E050E018
:101AC00070E090E00E947A14F30182819DEF980FFC
:101AD000923018F490899130D9F4F5E98F16910479
:101AE000B8F4F501E454FA4F2491F601E454FA4FA6
:101AF0004491F701E454FA4F6491F801E454FA4F29
:101B0000849130E050E070E090E00E947A143AC096
:101B10008430E1F482EA8816910408F033C0F501BC
:101B2000EC5CFC4F2491F601EC5CFC4F4491F70116
:101B3000EC5CFC4F6491F801EC5CFC4F849130E06C
:101B400050E070E090E00E947A141CC08330D1F421
:101B500098EA89169104B0F4F501EC56FF4F2491F0
:101B6000F601EC56FF4F4491F701EC56FF4F64919C
:101B7000F801EC56FF4F849130E050E070E090E0C7
:101B80000E947A14EFEF8E1A9E0A0C5F1F4F0039E5
:101B9000F4E01F0709F076CF809105018330C1F58D
:101BA00041E062E288E40E94A11341E064E28EE435
:101BB0000E94A11341E066E280E50E94A11340E08B
:101BC0006EE18AE20E94731340E06EE184E30E94BA
:101BD000731340E068E284E30E94731340E068E21C
:101BE0008AE20E94731340E063E288E20E9473136A
:101BF00040E06CE18FE20E94731340E063E286E311
:101C00000E94731340E06AE28FE20E947313B2C035
:101C10008230E9F541E06CE283E50E94A11341E0E6
:101C200062E381E50E94A11341E064E38FE40E9436
:101C3000A11340E06CE180E30E94731340E06FE188
:101C400085E30E94731340E064E286E30E9473130D
:101C500040E069E283E30E94731340E06AE28EE2AF
:101C60000E94731340E067E289E20E94731340E030
:101C700062E288E20E94731340E06DE18BE20E9411
:101C8000731340E06CE180E30E94731373C08130F2
:101C9000C1F541E067E389E40E94A11341E065E3F7
:101CA00083E40E94A11341E063E381E40E94A11355
:101CB00040E06CE18CE20E94731340E06CE181E350
:101CC0000E94731340E060E286E30E94731340E0D9
:101CD00065E286E30E94731340E06AE282E30E94B9
:101CE000731340E066E288E20E94731340E061E211
:101CF00088E20E94731340E06AE28DE20E9473134F
:101D000039C0811137C041E06DE28EE30E94A1131A
:101D100041E067E280E40E94A11341E065E282E4D1
:101D20000E94A11340E06CE18EE20E94731340E038
:101D30006DE183E30E94731340E062E286E30E9458
:101D4000731340E067E285E30E94731340E06AE2A8
:101D500080E30E94731340E069E28BE20E947313F8
:101D600040E064E288E20E94731340E06FE189E2A0
:101D70000E9473138091EC0281114AC08091ED02A0
:101D800081114BC08091E202833021F081E0809389
:101D9000040143C01092040140C0409105016FE06E
:101DA0008EE10E94C1130AC080910501FE01E80F77
:101DB000F11D41816FE08EE10E94C1138091ED021F
:101DC0008823B1F080910401813039F440910501FC
:101DD0006FE08EE50E94C11310C080910501FE01E5
:101DE000E80FF11D41816FE08EE50E94C11305C02F
:101DF00040E06FE08EE50E94C113809105018F5F86
:101E0000843018F4809305010EC0109205010BC0B8
:101E100080910401813041F6C0CF40E06FE08EE157
:101E20000E94C113CBCF0F900F900F900F90DF91B6
:101E3000CF911F910F91FF90EF90DF90CF90BF90C7
:101E4000AF909F908F907F906F90089580E00E9458
:101E500055130E941F0D0E946C13089581E090E0BD
:101E600090937D0180937C0108958091EA0290E037
:101E7000FC01EE0FFF1FE80FF91FEE0FFF1FEE0F23
:101E8000FF1FE45AFD4F0280F381E02D099508956C
:101E90008091EA0290E0FC01EE0FFF1FE80FF91FAE
:101EA000EE0FFF1FEE0FFF1FE45AFD4F0480F58178
:101EB000E02D099508958091EA0290E0FC01EE0F73
:101EC000FF1FE80FF91FEE0FFF1FEE0FFF1FE45A71
:101ED000FD4F0680F781E02D099508958091EA0273
:101EE00090E0FC01EE0FFF1FE80FF91FEE0FFF1F40
:101EF000EE0FFF1FE45AFD4F0084F185E02D099598
:101F000008958091EA0290E0FC01EE0FFF1FE80FB8
:101F1000F91FEE0FFF1FEE0FFF1FE45AFD4F028463
:101F2000F385E02D099508956F927F929F92AF926D
:101F3000BF92CF92DF92EF920F931F93CF93DF93D5
:101F400011E0C0E050E0DBE0EE24E3940F2EF7E474
:101F5000DF2EF02D0F2EF0EE6F2EF2E07F2EF02D03
:101F60000F2EFAE09F2EF02D02C0CF5F1F5F2C2FA7
:101F700030E0D29FF001D39FF00D1124EF5BFC4FB6
:101F8000A081B1818C91468190E002C095958795A2
:101F90004A95E2F780FD8EC0D29FF001D39FF00DED
:101FA0001124EF5BFC4F0085013009F050C08CEF2D
:101FB0008C0F8230B0F580917E018A30A8F08F5F5F
:101FC00080937E01843108F47EC0D29FF001D39FBC
:101FD000F00D1124EF5BFC4F0184F285E02D099593
:101FE00090927E015E2D74C080917F018F5F8093FF
:101FF0007F018F31B0F0D29FF001D39FF00D1124FB
:10200000EF5BFC4F0184F285E02D0995E0927F01A2
:1020100080917E018F5F80937E01C23049F05E2DFA
:1020200057C0C23009F051C000917F01063430F42E
:10203000CC24C394C00EC0927F0152C0063409F074
:102040004FC0D0927F01D3011A961C9249C01092C2
:102050007F0110927E01D29FF001D39FF00D1124D9
:10206000EF5BFC4F978180917A01891718F48F5F9D
:1020700080937A01D29FF001D39FF00D1124EF5B82
:10208000FC4F978180917A01981321C0D29FC001A3
:10209000D39F900D1124FC01EF5BFC4F5F01018485
:1020A000F285E02D0995D5011896EC9210927A01EF
:1020B0005E2D0EC0D29FF001D39FF00D1124EF5B77
:1020C000FC4F108605C05E2D03C05E2D01C05E2D45
:1020D000173008F44ACF511105C010927A0102C09E
:1020E0005E2D43CFDF91CF911F910F91EF90DF9045
:1020F000CF90BF90AF909F907F906F900895EF9298
:10210000FF920F931F93CF93DF93E1E4F3E00AE292
:1021100010E015830483CBE2D0E0D383C283A9E22D
:10212000B0E0B183A083168280E591E19287818738
:102130008AE0878384E290E0908B878785E290E055
:102140009687858783E290E09487838787E0818BF9
:102150008EE29FE0958B848B88E2828B67E270E051
:10216000738F628F48E250E0518F408F26E230E05B
:10217000378B268B148E85E39FE090A3878F82E0B8
:10218000858F76A365A354A343A332A321A391E033
:1021900097A30F2EF8E4EF2EFFE0FF2EF02DF3A60D
:1021A000E2A680A771AB60AB57A746A735A724A7C7
:1021B00082AB0F2EFBE5EF2EFFE0FF2EF02DF6AAEF
:1021C000E5AA93AB74AF63AF52AF41AF30AF27AB6B
:1021D00023E025AF2EE63FE0309382032093810376
:1021E00096AF1093880300938703D0938603C09320
:1021F0008503B0938403A09383039093890321E81C
:102200003FE030938D0320938C0380938A0320E07A
:1022100030E07BE041E050E0729FF001739FF00DF1
:102220001124EF5BFC4F8681A481B5816C91EA019A
:1022300002C0CC0FDD1F8A95E2F7CE018095909504
:1022400086238C9386810280F381E02D6081DA0100
:1022500002C0AA0FBB1F8A95E2F7CD01862B8083AF
:102260002F5F3F4F27303105B9F6DF91CF911F9196
:102270000F91FF90EF9008950F931F93CF93DF93EB
:10228000009749F08C01C0E0D0E00E94260F219613
:102290000C171D07D1F7DF91CF911F910F91089572
:1022A000CF930E945E138FEF0E9452130E94260F5D
:1022B0000E94562F0E94260F0E948B340E94260FE8
:1022C0005D9A84E690E00E943C1180917B0181112F
:1022D0000DC0C2E34FE36EE38EE30E948F300E9495
:1022E000260FC150B9F781E080937B01E0EEF2E068
:1022F000128681E08083CF910895CF9380917C01F5
:1023000090917D010097D9F127E02093EA02019690
:1023100090937D0180937C01059719F482E00E94DF
:10232000F71180917C0190917D018031974238F1C5
:102330001092E00210927D0110927C0180E00E94D8
:1023400055130E946C13CFEF4DE46CE48DE40E94B2
:102350008F30C150C9F7ECEBF0E080818F7B808338
:1023600080818B7F80835D988FEF99E628E1815093
:1023700090402040E1F700C000000E944F13CF9131
:1023800008958130A1F018F0823009F1089580910C
:10239000E3028F5F823018F48093E30202C0109250
:1023A000E3026091E30280E00E947A300895809118
:1023B000E4028F5F833018F48093E40202C010922D
:1023C000E4026091E40281E00E947A3008958091F5
:1023D000E5028F5F823018F48093E50202C010920C
:1023E000E5026091E50282E00E947A300895CF9381
:1023F000C82F0E940E328C2F0E947B2FCF91089500
:10240000CF93DF930E947E2D4091E202413031F064
:1024100026EF240F223010F010928101893E23E034
:102420009207E8F0209181012223C9F02B3009F4B2
:1024300022C120918001222391F0822F0E94F71166
:102440001092810181E0809383018FEF90E722E079
:10245000815090402040E1F700C000001DC1EC0118
:102460002B97CE3D23E0D20718F01092830114C1C0
:1024700020918301213009F40FC1C331D10598F5B2
:102480004230B1F0842F0E94DD34882309F404C166
:102490008091E202893061F40E94FD368FEF90E76F
:1024A00022E0815090402040E1F700C00000F4C0DD
:1024B00080918201811103C00E94F71105C0813013
:1024C00019F488E00E94F711809182010E941A3766
:1024D000809182018F5F833018F480938201BBC0AA
:1024E00010928201B8C09C012B5531092D31310564
:1024F00020F482E00E94C111AEC09C01275931092D
:102500002732310520F481E00E94C111A4C09C0152
:102510002F5031402732310520F480E00E94C11154
:102520009AC09C012F5531402633310548F48091E3
:10253000E9028F5F843008F080E00E948C2F8BC00E
:102540009C01215E31402133310578F410928201E3
:1025500082E00E94F7118091E2020E94DD3488231C
:1025600009F479C01092EA0276C09C0125593240E4
:102570002C32310520F485E00E94F7116CC09C01DB
:10258000255E32402732310510F54130B1F483E049
:1025900080938001809181018A3020F48F5F809345
:1025A00081017AC08A3009F056C00E94F7118091EB
:1025B00081018F5F809381016FC0433021F486E0F9
:1025C0000E94F71148C083E00E94F71144C09C01AB
:1025D0002F53334027323105B8F4842F0E94DD3465
:1025E00081110AC08091E202853051F48091E102AC
:1025F0000E94DD34882321F089E00E94F7112BC06E
:1026000081E00E94F71127C09C01255833402133F7
:10261000310508F54130B1F484E080938001809168
:1026200081018A3020F48F5F8093810135C08A3028
:1026300091F48BE00E94F711809181018F5F80936C
:1026400081012AC0443021F487E00E94F71103C0C1
:1026500084E00E94F711CB3AD340F0F481E08093FC
:1026600083019FEF20E782E0915020408040E1F716
:1026700000C0000011C081E00E94F711109281019A
:1026800081E0809383019FEF20E782E0915020401A
:102690008040E1F700C00000DF91CF9108950E94D3
:1026A000001C08950E94A01B0895682F70E040E070
:1026B00054E08EE893E00E94FA3A089560E480E8DE
:1026C0000E94B61B80E00E94551360E074E08EE823
:1026D00093E00E94931A089560E074E08EE893E01E
:1026E0000E94931A089588235CF1603448F5262FE0
:1026F000269526952695677090E030E8239F800DFB
:10270000911D1124442371F0FC01E257FC4F81E03C
:1027100090E002C0880F991F6A95E2F79081892B9B
:1027200080830895FC01E257FC4F81E090E002C0F5
:10273000880F991F6A95E2F780959081892380839D
:1027400008950F931F93CF93DF93182FC62FD42F85
:102750000E94731301E0010F4D2F6C2F802F0E94F8
:102760007313CF5F4D2F6C2F812F0E9473134D2F4A
:102770006C2F802F0E947313DF91CF911F910F91C7
:1027800008951F93CF93DF93D82FC62F41112BC0ED
:1027900041E08EEF8D0F0E94731341E06C2F8FEF9D
:1027A0008D0F0E94731341E06C2F8D2F0E947313C5
:1027B00061E06C0F41E08D2F0E94731311E01D0F3B
:1027C00062E06C0F41E0812F0E9473136FEF6C0F7A
:1027D00041E08D2F0E9473136EEF6C0F41E0812F4B
:1027E0000E94731383C0413051F56FEF6C0F0E944C
:1027F00073136EEF6C0F41E08D2F0E94731341E055
:102800006C2F8D2F0E94731311E01C0F41E0612F7C
:102810008EEF8D0F0E94731341E06C2F8FEF8D0FA1
:102820000E94731341E06C2F81E08D0F0E9473139F
:1028300041E0612F82E08D0F0E94731357C0423038
:1028400051F541E00E94731361E06C0F41E08D2F60
:102850000E9473131FEF1D0F62E06C0F41E0812F88
:102860000E94731341E06C2F81E08D0F0E9473135F
:1028700041E06C2F82E08D0F0E9473136FEF6C0F9D
:1028800041E08D2F0E9473136EEF6C0F41E0812F9A
:102890000E9473132BC0433049F541E00E9473132B
:1028A00041E06C2F8FEF8D0F0E9473131FEF1C0FF1
:1028B00041E0612F8EEF8D0F0E94731341E06C2F6A
:1028C00081E08D0F0E94731341E0612F82E08D0F34
:1028D0000E94731361E06C0F41E08D2F0E9473130F
:1028E00062E06C0F41E08D2F0E947313DF91CF9156
:1028F0001F9108952F923F924F925F926F927F9215
:102900008F929F92AF92BF92CF92DF92EF92FF92FF
:102910000F931F93CF93DF9300D000D0CDB7DEB7D6
:102920009C838B837B014A011901CA012B813C8165
:10293000821B930B6C0122F4CC24DD24C81AD90A23
:1029400091012E193F09C901992324F48827992759
:10295000821B930B9A8389838B819C8188159905AF
:1029600024F044244A94542C03C044244394512C0E
:10297000E214F30424F066246A94762C03C06624DF
:102980006394712C860129813A81021B130B41E06B
:10299000622D882D0E947313A980BA80B194A194EE
:1029A000B1081CC041E06E2D8B810E947313C801D9
:1029B000880F991FA816B90654F429813A81021B81
:1029C000130B2B813C81240D351D3C832B838C15EF
:1029D0009D0524F40C0D1D1DE60CF71C8B819C81BC
:1029E00088159905F9F6E214F304E1F60F900F90BB
:1029F0000F900F90DF91CF911F910F91FF90EF906B
:102A0000DF90CF90BF90AF909F908F907F906F900E
:102A10005F904F903F902F900895CF92DF92EF926A
:102A2000FF920F931F93CF93DF93EC016B017A0119
:102A30008901AC010E947A149801A701B601C7016F
:102A40000E947A149601A701B601CE010E947A1461
:102A50009801A701B801CE010E947A14DF91CF91AD
:102A60001F910F91FF90EF90DF90CF9008958F927C
:102A70009F92AF92BF92CF92DF92EF92FF920F930D
:102A80001F93CF93DF93B82EA62E442309F470C072
:102A900062ED620F842F0E94271AF82EC92F0E9420
:102AA000331AD82F8F2D9C2F0E94361A882309F4B1
:102AB00078C00F2D1C2F8A2C880E9A2CEE24E394BC
:102AC000F12C53C09601002E02C0220F331F0A942E
:102AD000E2F7F701428142236A2D8C2F0E94731383
:102AE00001501109CF5FC911EDCFFFEFEF1AFF0AB7
:102AF000A3948A1409F455C0DD23B9F3CB2D07E064
:102B000010E0E0CFAB2C0F2EF7E0CF2ED12CF02D24
:102B1000C0E0C83078F4F8014281C7010C2C02C033
:102B2000880F991F0A94E2F74823692D8A2D0E9485
:102B300073130FC0C6010896970102C0220F331FFE
:102B40008A95E2F7F80143814223692D8A2D0E947C
:102B50007313CF5FF1E0CF1AD108A394DC13D9CF60
:102B60000E5F1F4F93949814E1F0D111CBCFF8CFA3
:102B7000622F80E00E94271A182FC92F0E94331A53
:102B8000D82F812F9C2F0E94361A882351F0E12ED6
:102B9000FC2E8A2C880E9B2C9D0ECC24C394D12C09
:102BA000ABCF8D2FDF91CF911F910F91FF90EF90C1
:102BB000DF90CF90BF90AF909F908F900895EF924D
:102BC000FF920F931F93CF93DF93E82E062FF42EDF
:102BD000E901182F88E028812A3029F02D3091F062
:102BE000211103C014C0080F10C04F2D602F812F7A
:102BF0000E943715180F68818F2D0E94271A0E9496
:102C0000361A03C021961E2DE6CF2196E4CFDF9120
:102C1000CF911F910F91FF90EF900895CF93DF9385
:102C2000CDB7DEB7EC970FB6F894DEBF0FBECDBFC1
:102C30009E012A5B3F4F26964EAD5FAD26976CE313
:102C400070E0CE0101960E94313B9E012F5F3F4F05
:102C500024964FAD249723966FAD239722968FAD80
:102C600022970E94DF15EC960FB6F894DEBF0FBED8
:102C7000CDBFDF91CF910895EF92FF920F931F93F5
:102C8000CF93DF93CDB7DEB760970FB6F894DEBF72
:102C90000FBECDBF198D9E01215E3F4F4D8D5E8DC4
:102CA00060E170E0CE0101960E94313B9E012F5FF2
:102CB0003F4F4B8D6A8D812F0E94DF158C8D8130A7
:102CC000A1F5DE011196FD0101900020E9F7319791
:102CD0007F01EA1AFB0A812F90E02A8D622F70E0B3
:102CE000685F7F4F97013327A901440F551F420F9B
:102CF000531F440F551F480F591F415051099B0145
:102D000002970E947A140A8D095F41E0602F8EEFCE
:102D1000810F0E9473138E2D880F8E0D880F115016
:102D200041E0602F810F0E94731360960FB6F894F4
:102D3000DEBF0FBECDBFDF91CF911F910F91FF90EE
:102D4000EF900895EF92FF920F931F93CF93DF932D
:102D5000082F10E0780184E0E80EF11CC62FD0E0C7
:102D60009E01A701BE01C8010E947A14BE016F5FD7
:102D70007F4F9B01A701C8010E947A14BE016E5FBC
:102D80007F4F9B01A701C8010E947A14BE016D5FAD
:102D90007F4F9B01A701C8010E947A14BE016C5F9E
:102DA0007F4F9B01A701C8010E947A14DF91CF9148
:102DB0001F910F91FF90EF900895EF92FF920F9364
:102DC0001F93CF93DF93062F10E0780194E0E90E74
:102DD000F11CC82FD0E09701AE01B801CE010E94CE
:102DE0007A14CE0101969701AC01B8010E947A14C1
:102DF000CE0103969701AC01B8010E947A14CE016E
:102E000004969701AC01B8010E947A14DF91CF912A
:102E10001F910F91FF90EF900895EF92FF920F9303
:102E20001F93CF93DF93C62FD0E07E0194E0E90E8D
:102E3000F11C082F10E09701A801BE01C8010E94F3
:102E40007A14C80101969701AC01BE010E947A1460
:102E5000C80102969E012D5F3F4FBE016F5F7F4FFD
:102E6000AC010E947A14BE016E5F7F4FC8010396C9
:102E70009B01AC010E947A14DF91CF911F910F91B9
:102E8000FF90EF900895CF93DF93C82FD62F0E9425
:102E90000D176D2F84E08C0F0E940D17DF91CF91DD
:102EA00008958F929F92AF92BF92CF92DF92EF924E
:102EB000FF920F931F93CF93DF93062F10E06801CB
:102EC00092E0C90ED11CC82FD0E09601AE01B60128
:102ED000CE010E947A14480183E0880E911C5801AB
:102EE0009FEFA91AB90ACE0101969401AC01B50170
:102EF0000E947A14780184E0E80EF11CCE0102965B
:102F00009701AC01B8010E947A14CE010396970193
:102F1000AC01B8010E947A14CE0104969601AC016E
:102F2000B6010E947A14CE0105969401AC01B50158
:102F30000E947A14CE0106969701AC01B8010E9456
:102F40007A14CE0107969701AC01B8010E947A1459
:102F5000DF91CF911F910F91FF90EF90DF90CF9075
:102F6000BF90AF909F908F900895AF92BF92CF92F5
:102F7000DF92EF92FF920F931F93CF93C22F91E0B6
:102F8000E91619F0211117C028C010E0E62EF12C27
:102F9000C42ED12C5701A80EB11C1C1740F0B6014D
:102FA000610F711D9B01A501C7010E947A141F5F6B
:102FB000011798F712C0E62EF12C10E0040F111D36
:102FC0006701C80ED11CB8016C1B71099B01A601D9
:102FD000C7010E947A14C150B1F7CF911F910F9190
:102FE000FF90EF90DF90CF90BF90AF900895AF9299
:102FF000BF92DF92EF92FF920F931F93CF93DF93D5
:10300000D82FC62F1F924F9383E791E09F938F9302
:103010001F9282E0860F8F9385E08D0F8F930E9421
:103020000E160C2F10E0AD2EB12CB8016E5F7F4F45
:10303000A501445F5F4F9B01C50103960E947A146E
:10304000B8016F5F7F4F75018BE0E80EF11C9B01AB
:10305000A701C7010E947A140F2EF3E0DF2EF02D96
:10306000DD0E63E06C0F41E08D2D0E94731364E070
:103070006C0F41E08D2D0E947313B8016D5F7F4F7F
:103080009B01A701C7010E947A14B801665F7F4FB8
:103090009B01A701C50102960E947A1419E01C0F3A
:1030A00041E0612F8D2D0E9473136BE06C0F41E0A6
:1030B0008D2D0E947313D55F68E06C0F41E08D2F5A
:1030C0000E94731341E0612F8D2F0E9473138DB7FF
:1030D0009EB707960FB6F8949EBF0FBE8DBFDF91C7
:1030E000CF911F910F91FF90EF90DF90BF90AF9025
:1030F0000895CF9323E230E044E350E063E270E0D0
:103100008AE290E00E947A1422E230E04AE250E043
:1031100063E270E08AE290E00E947A1422E230E0FA
:1031200044E350E063E270E084E390E00E947A14AC
:1031300024E230E04FE250E063E270E08FE290E0A2
:103140000E947A1483E191E09F938F931F92C6E2CD
:10315000CF938DE28F930E940E1623E230E049E474
:1031600050E063E270E087E390E00E947A1422E28C
:1031700030E047E350E063E270E087E390E00E94D4
:103180007A1422E230E049E450E063E270E089E43E
:1031900090E00E947A1424E230E040E450E063E2E0
:1031A00070E080E490E00E947A1485E191E09F93C2
:1031B0008F931F92CF9388E38F930E940E1623E282
:1031C00030E04EE550E063E270E08CE490E00E9475
:1031D0007A1422E230E04CE450E063E270E08CE4E8
:1031E00090E00E947A1422E230E04EE550E063E283
:1031F00070E08EE590E00E947A1424E230E045E52C
:1032000050E063E270E085E590E00E947A1489E185
:1032100091E09F938F931F92CF938DE48F930E94A1
:103220000E1623E230E04AE650E063E270E081E609
:1032300090E00E947A1422E230E041E650E063E23E
:1032400070E081E690E00E947A1422E230E04AE6E3
:1032500050E063E270E08AE690E00E947A1424E293
:1032600030E046E650E063E270E086E690E00E94DF
:103270007A148DE191E09F938F931F92CF9381E613
:103280008F930E940E168DB79EB744960FB6F89492
:103290009EBF0FBE8DBFCF910895CF93C82F80E200
:1032A00091E09F938F931F9280E18F9382E08F93A1
:1032B0000E940E1626E130E046E150E062E170E047
:1032C00086E190E00E947A1426E130E04AE150E085
:1032D00062E170E08AE190E00E947A1426E130E039
:1032E0004EE150E062E170E08EE190E00E947A14DD
:1032F00024E130E04BE150E064E170E089E190E0EE
:103300000E947A140F900F900F900F900F90C13081
:10331000C9F018F0C23059F13EC024E130E047E175
:1033200050E064E170E085E190E00E947A1424E1CD
:1033300030E04FE150E064E170E08DE190E00E9408
:103340007A1429C023E130E047E150E063E170E006
:1033500085E190E00E947A1423E130E04FE150E0F3
:1033600063E170E08DE190E00E947A1414C023E1E3
:1033700030E047E150E063E170E085E190E00E94D9
:103380007A1422E130E04FE150E062E170E08DE13B
:1033900090E00E947A14CF910895CF93DF93C82FC5
:1033A000D92F80E00E94551328E330E048E750E031
:1033B00068E070E088E090E00E940D15DF93CF9305
:1033C0001F928CE08F938EE08F930E940E160E94C6
:1033D0006C132FEF89E698E1215080409040E1F78F
:1033E00000C000000F900F900F900F900F90DF9192
:1033F000CF91089522E2829FC0011124FC01E05682
:10340000F34FAEE8B7E020EB37E085918D93A2173C
:10341000B307D9F78EE897E0089590E0FC01EE0F2E
:10342000FF1F880F991F880F991F880F991FE80F9A
:10343000F91FE85CF14FA0EBB7E02AEB37E085918C
:103440008D93A217B307D9F780EB97E00895E82F83
:10345000862FF0E0EE0FFF1FEC5DFE4F0190F08134
:10346000E02D09950895FC0180810895FC0181817A
:103470000895EF92FF920F931F93CF93DF931F92C4
:10348000CDB7DEB789838B017A01299861E070E0BE
:10349000CE0101960E94BB37B701C8010E94BB371D
:1034A0000F90DF91CF911F910F91FF90EF900895B2
:1034B000299A0E94BB3729980895833038F440E058
:1034C00050E060E070E080620E94391A0895CF9366
:1034D000DF9300D0CDB7DEB78F7789836F776A83AC
:1034E00042E050E0BE016F5F7F4F81E20E94391AD7
:1034F0000F900F90DF91CF910895CF93DF9300D07D
:10350000CDB7DEB78770898367706A8342E050E089
:10351000BE016F5F7F4F82E20E94391A0F900F90B9
:10352000DF91CF9108950F931F93CF93DF93EC0119
:103530008B016091BB07615080E00E94671A609127
:10354000BA07669566956695615080E00E947D1A7F
:10355000B801CE010E94581ADF91CF911F910F91AF
:1035600008958F7340E050E060E070E080640E9456
:10357000391A089591E0811101C090E040E050E0D7
:1035800060E070E0892F806A0E94391A0895CF9315
:10359000DF931F92CDB7DEB781508F73898341E0EF
:1035A00050E0BE016F5F7F4F88EA0E94391A0F908A
:1035B000DF91CF910895CF93DF931F92CDB7DEB700
:1035C000898341E050E0BE016F5F7F4F83ED0E9431
:1035D000391A0F90DF91CF910895CF93DF931F9207
:1035E000CDB7DEB781508F7090E1699FB001112493
:1035F000682B698341E050E0BE016F5F7F4F85ED2E
:103600000E94391A0F90DF91CF910895CF93DF93E5
:103610001F92CDB7DEB7811102C080E101C084E105
:10362000898341E050E0BE016F5F7F4F8DE80E94CB
:10363000391A0F90DF91CF910895811188E040E011
:1036400050E060E070E0806C0E94391A0895CF93DA
:10365000DF931F92CDB7DEB7811103C082E089836B
:1036600002C082E18983662319F08981806289839F
:1036700041E050E0BE016F5F7F4F8AED0E94391A32
:103680000F90DF91CF910895CF93DF931F92CDB725
:10369000DEB78F7011F0898302C082E089836111E7
:1036A00001C062E080E1689FB00111248981682B2C
:1036B000698341E050E0BE016F5F7F4F89ED0E945A
:1036C000391A0F90DF91CF910895CF93DF931F9216
:1036D000CDB7DEB78077898341E050E0BE016F5FF0
:1036E0007F4F8BED0E94391A0F90DF91CF91089593
:1036F00040E050E060E070E08EE20E94391A0895E8
:1037000040E050E060E070E08EEA0E94391A0895CF
:1037100040E050E060E070E08FEA0E94391A0895BE
:1037200040E050E060E070E084EA0E94391A0895B9
:1037300040E050E060E070E086EA0E94391A0895A7
:10374000CF93DF931F92CDB7DEB7898341E050E07E
:10375000BE016F5F7F4F81E80E94391A0F90DF91A1
:10376000CF910895289A209A219A08958093BB07B3
:103770006093BA070E94B21B0E94B137289A8FE962
:103780009FE00197F1F700C0000028988FE295E7CD
:103790000197F1F700C00000289A0E94801B68E0A2
:1037A00081E00E94ED1A8091BA070E94C71A80E05A
:1037B0000E94DB1A80E00E94B11A81E00E94061B81
:1037C00080E00E945D1A80E00E94BA1A81E00E94A7
:1037D0001D1B60E081E00E94271B8FE70E94A01B59
:1037E00062E082E00E94441B80E40E94651B0E940C
:1037F000901B0E94981B0E94781B0E94881B0895B2
:103800000E94801B0895655F623308F061E38C338A
:1038100029F158F48230C9F018F4813099F00895F4
:103820008730B1F08431B9F008958C3801F128F473
:103830008436B9F08837C1F00895803AD9F0883CD1
:10384000E1F00895609393010895609392010895C3
:1038500060939101089560939001089560938F01A2
:10386000089560938E01089560938D01089560938B
:103870008C01089560938B01089560938A010895E7
:103880004F925F926F927F928F929F92AF92BF9270
:10389000CF92DF92EF92FF920F931F93CF93DF931C
:1038A000CDB7DEB72F970FB6F894DEBF0FBECDBFF2
:1038B0008091890181111CC06EE478E1CE010196EE
:1038C0000E94EA3A9F938F9381E090918801911131
:1038D00080E08F931F928EEF8F9386E08F930E94EC
:1038E0003C160F900F900F900F900F900F901BC0F1
:1038F00069E478E1CE0101960E94EA3A9F938F93A2
:1039000081E090918801911180E08F931F928EEF5A
:103910008F9386E08F930E943C160F900F900F902C
:103920000F900F900F901091E8026FE378E1CE01B5
:1039300001960E94EA3A1F921F939F938F9381E012
:1039400090918801913009F080E08F931F928EEF63
:103950008F938DE28F930E943C161091E60268E3EC
:1039600078E1CE0101960E94EA3A1F921F939F933D
:103970008F9381E090918801923009F080E08F93DD
:103980001F928EEF8F9380E68F930E943C160F2E2E
:10399000F8E2AF2EF1E0BF2EF02DBF92AF921F9252
:1039A0000F2EF2E35F2EF02D5F9285E08F930E9441
:1039B0000E160AE211E01F930F931F925F9289E0A7
:1039C0008F930E940E160F2EFCE2CF2EF1E0DF2E19
:1039D000F02DDF92CF921F925F928EE08F930E9424
:1039E0000E161F930F931F925F9281E18F930E9497
:1039F0000E160FB6F894DEBF0FBECDBF1F930F9308
:103A00001F925F9285E18F930E940E168EE291E0E5
:103A10009F938F931F925F928BE18F930E940E165C
:103A2000BF92AF921F925F928FE18F930E940E160A
:103A30001F930F931F925F920F2EF3E24F2EF02DE4
:103A40004F920E940E16DF92CF921F925F9288E2F1
:103A50008F930E940E160F2EF0E3EF2EF1E0FF2E53
:103A6000F02DFF92EF921F925F928CE28F930E9453
:103A70000E160F2EF2E38F2EF1E09F2EF02D9F9267
:103A80008F921F925F925F920E940E160FB6F8946B
:103A9000DEBF0FBECDBFFF92EF921F925F9287E312
:103AA0008F930E940E16DF92CF921F925F928CE34B
:103AB0008F930E940E161F930F931F925F928FE3B6
:103AC0008F930E940E16FF92EF921F925F9284E4F2
:103AD0008F930E940E16DF92CF921F925F9289E41D
:103AE0008F930E940E160F2EF4E36F2EF1E07F2EBF
:103AF000F02D7F926F921F925F928CE48F930E94C1
:103B00000E16FF92EF921F925F9281E58F930E94B3
:103B10000E160FB6F894DEBF0FBECDBFDF92CF9268
:103B20001F925F9286E58F930E940E1686E391E0C6
:103B30009F938F931F925F9289E58F930E940E1639
:103B4000FF92EF921F925F928EE58F930E940E1666
:103B5000DF92CF921F925F9283E68F930E940E16A0
:103B60009F928F921F925F9286E68F930E940E160D
:103B7000FF92EF921F925F928BE68F930E940E1638
:103B80007F926F921F925F9280E78F930E940E1632
:103B90000FB6F894DEBF0FBECDBF1F930F931F92D9
:103BA0005F9284E78F930E940E16FF92EF921F920E
:103BB0005F9289E78F930E940E16BF92AF921F9279
:103BC0008FE08F931F920E940E161F930F931F92E8
:103BD00089E18F931F920E940E16BF92AF921F929F
:103BE0004F921F920E940E160FB6F894DEBF0FBEC2
:103BF000CDBF16E041E063E1812F0E947313165F91
:103C00001838C1F716E041E06DE1812F0E9473136F
:103C1000165F1838C1F716E041E067E2812F0E9475
:103C20007313165F1838C1F72AE030E045E050E022
:103C300062E370E085E090E00E947A1422E330E0D5
:103C40004EE750E062E370E085E090E00E947A1475
:103C50000E94E834813009F04FC0809186018111C3
:103C60000EC0E0918701F0E0E85CFE4F80810E9489
:103C7000693081E080938601109284013DC091E01B
:103C80009093850110918701143018F492E090937D
:103C90008501813051F480918401909185018917CB
:103CA00021F08F5F8093840127C080914B02813087
:103CB00019F58091890181110AC0E12FF0E0E85CDB
:103CC000FE4F6091490280810E94031C09C0E12FD0
:103CD000F0E0E85CFE4F60914A0280810E94031C84
:103CE0001F5F1A3018F41093870102C010928701E9
:103CF0001092860110924B026091930170E09B013B
:103D00004CE050E087E090E00E947A1460919201CC
:103D100070E09B0148E150E080E190E00E947A145D
:103D20006091910170E09B0146E250E08CE190E0EF
:103D30000E947A146091900170E09B014FE250E084
:103D40008AE290E00E947A1460918F0170E09B01FA
:103D50004AE350E083E390E00E947A1460918E0180
:103D600070E09B0147E450E08EE390E00E947A14FB
:103D700060918D0170E09B0144E550E08BE490E0A0
:103D80000E947A1460918C0170E09B0141E650E042
:103D900088E590E00E947A1460918B0170E09B01AD
:103DA0004EE650E085E690E00E947A1460918A0128
:103DB00070E09B014BE750E081E790E00E947A14AD
:103DC0002F960FB6F894DEBF0FBECDBFDF91CF9117
:103DD0001F910F91FF90EF90DF90CF90BF90AF9029
:103DE0009F908F907F906F905F904F90089508956F
:103DF000809188018F5F833018F480938801089543
:103E000010928801089580918801811103C0109259
:103E100089010895813059F46091E802662399F090
:103E200061506093E80284E00E947A300895823005
:103E300051F46091E602662331F061506093E6022E
:103E400085E00E947A30089580918801811104C034
:103E500081E0809389010895813059F46091E802EE
:103E60006F3098F46F5F6093E80284E00E947A30CC
:103E70000895823051F46091E602633030F46F5F50
:103E80006093E60285E00E947A3008950895CF930A
:103E9000DF93CDB7DEB72C970FB6F894DEBF0FBE19
:103EA000CDBF60E678E1CE0101960E94EA3A9F9389
:103EB0008F931F921F921F920E940E1664E578E165
:103EC000CE0101960E94EA3A9F938F931F928AE057
:103ED0008F931F920E940E1687EF92E09F938F930D
:103EE0001F9282E38F931F920E940E160FB6F894D2
:103EF000DEBF0FBECDBF2C960FB6F894DEBF0FBE4F
:103F0000CDBFDF91CF91089508950E94BB320895EF
:103F10000895089508955F926F927F928F929F9275
:103F2000AF92BF92CF92DF92EF92FF920F931F93C7
:103F3000CF93DF93CDB7DEB769970FB6F894DEBFA6
:103F40000FBECDBF813051F4109294010E94E8342D
:103F5000813021F4809108010E94693063EA78E1A0
:103F6000CE0101960E94EA3A9F938F931F9281E0BF
:103F70008F9382E08F930E940E161091E70268E9FA
:103F800078E1CE010B960E94EA3A1F921F939F930D
:103F90008F9381E090919401911180E08F931F9213
:103FA0008AE08F9382E08F930E943C161091F20278
:103FB0006DE878E1CE010B960E94EA3A1F921F93BA
:103FC0009F938F9381E090919401913009F080E06C
:103FD0008F931F9284E18F9382E08F930E943C160F
:103FE0008091E2020E94DD340FB6F894DEBF0FBE6E
:103FF000CDBF8130C9F51091E80263E878E1CE01C8
:104000000B960E94EA3A1F921F939F938F9381E031
:1040100090919401923009F080E08F931F928EE18D
:104020008F9382E08F930E943C161091E6026CE71A
:1040300078E1CE010B960E94EA3A1F921F939F935C
:104040008F9381E090919401933009F080E08F93F9
:104050001F9288E28F9382E08F930E943C160FB6E6
:10406000F894DEBF0FBECDBF0E94E834813009F066
:1040700047C010910801153110F564E778E1CE01D1
:104080000B960E94EA3A42E3149F900111243F9359
:104090002F939F938F9381E090919401943009F036
:1040A00080E08F931F9281E38F9382E08F930E9431
:1040B0003C160FB6F894DEBF0FBECDBF21C06CE634
:1040C00078E1CE010B960E94EA3A44E6149F9001F3
:1040D00011243F932F939F938F9381E090919401AC
:1040E000943009F080E08F931F9281E38F9382E0F8
:1040F0008F930E943C160FB6F894DEBF0FBECDBF63
:104100009091490280910701891718F48F5F80937D
:10411000070180910701981718F4815080930701D7
:1041200090914A0280910601891718F48F5F80935D
:10413000060180910601981718F4815080930601BA
:104140000F2EF4E3EF2EF1E0FF2EF02DFF92EF9211
:104150001F920F2EFFE27F2EF02D7F920F2EF7E49D
:104160005F2EF02D5F920E940E1608E211E01F9361
:104170000F931F927F920F2EFBE46F2EF02D6F9204
:104180000E940E16FF92EF921F926894CC24C5F8FD
:10419000CF925F920E940E160F2EFAE28F2EF1E060
:1041A0009F2EF02D9F928F921F92CF926F920E941E
:1041B0000E160F2EFCE2AF2EF1E0BF2EF02DBF92B7
:1041C000AF921F920F2EFFE0DF2EF02DDF925F9255
:1041D0000E940E161F930F931F92DF926F920E9400
:1041E0000E16FF92EF921F927F920F2EFFE66F2E18
:1041F000F02D6F920E940E160FB6F894DEBF0FBE20
:10420000CDBF1F930F931F927F920F2EF3E77F2E48
:10421000F02D7F920E940E16FF92EF921F92CF9286
:104220006F920E940E169F928F921F92CF927F9252
:104230000E940E16BF92AF921F92DF928EE68F936E
:104240000E940E161F930F931F92DF9282E78F93A7
:104250000E940E1628E330E042E550E06FE070E087
:1042600082E590E00E947A1428E330E04CE650E0CA
:104270006FE070E08CE690E00E947A1429E330E071
:104280004CE650E069E370E082E590E00E947A1429
:1042900041E065E38DE60E94731341E060E38DE643
:1042A0000E94731341E067E28DE60E94731341E0C0
:1042B00061E28DE60E94731341E066E18DE60E94A3
:1042C000731341E06FE08DE60E94731341E065E3F4
:1042D00081E50E94731341E060E381E50E9473135E
:1042E00041E067E281E50E94731341E061E281E50C
:1042F0000E94731341E066E181E50E94731341E07F
:104300006FE081E50E947313EE24E39408E22091AC
:1043100007014FE064E58AE00E94B517209106018D
:104320004FE060E68AE00E94B5170FB6F894DEBF52
:104330000FBECDBF69960FB6F894DEBF0FBECDBFDE
:10434000DF91CF911F910F91FF90EF90DF90CF9071
:10435000BF90AF909F908F907F906F905F900895E7
:104360000895809194018F5F809394010E94E834B6
:10437000813039F480919401853048F01092940195
:10438000089580919401843010F010929401089562
:10439000809194018430D1F4809108019FEF980FAF
:1043A000943118F49093080105C0853118F08A50B3
:1043B0008093080180910801811103C080EF8093F0
:1043C0000801809108010E9469300895823059F4F3
:1043D0006091E802662329F161506093E80284E06D
:1043E0000E947A300895833059F46091E602662382
:1043F000C1F061506093E60285E00E947A30089532
:10440000811107C01092E70260E086E00E947A30D6
:104410000895813031F41092F20260E087E00E944A
:104420007A300895809194018430B9F48091080124
:10443000843120F48F5F8093080103C0865F8093EE
:10444000080180910801813F18F081E08093080104
:10445000809108010E9469300895823059F460917A
:10446000E8026F3030F56F5F6093E80284E00E94ED
:104470007A300895833059F46091E6026330C8F4CD
:104480006F5F6093E60285E00E947A3008958111A3
:1044900008C081E08093E70261E086E00E947A3004
:1044A0000895813031F48093F20261E087E00E9448
:1044B0007A30089508955F926F927F928F929F92C3
:1044C000AF92BF92CF92DF92EF92FF920F931F9322
:1044D000CF93DF93CDB7DEB7ADB6BEB6813031F541
:1044E000E3E0F3E082E080838DED98E192838183C5
:1044F00084E0838385ED98E19583848381E08683DE
:104500008CEC98E19087878383E0818780EC98E149
:104510009387828789E0848785EB98E196878587F2
:104520008AE087878BEA98E1918B808B10919501C7
:10453000812F880F180F110F163008F443C04CC09C
:10454000CDB6DEB60C33C1F1812F90E0FC01EE0F49
:10455000FF1F8E0F9F1FFC01ED5FFC4F818092803B
:10456000C4010E94F13A01962DB73EB7281B390BC2
:104570000FB6F8943EBF0FBE2DBF8DB79EB7019604
:104580007C01B4019F2D0E94EA3AFF92EF92862DA2
:10459000909196019113852D8F931F920F937F9287
:1045A0000E943C16065F0FB6F894DEBE0FBECDBE6D
:1045B0001F5F163029F610C00FB6F894DEBE0FBE8E
:1045C000CDBE0AC0CDB6DEB600E066246394512CA1
:1045D0006894772471F8B8CF809195011F928F93DA
:1045E00083E791E09F938F931F921F9288E78F93A9
:1045F0000E940E162DB73EB7295F3F4F0FB6F894B5
:104600003EBF0FBE2DBF0FB6F894BEBE0FBEADBEEF
:10461000DF91CF911F910F91FF90EF90DF90CF909E
:10462000BF90AF909F908F907F906F905F90089514
:10463000809196018F5F863018F4809396010895DB
:10464000109296011092950108958091960190E044
:10465000FC01EE0FFF1F8E0F9F1FFC01ED5FFC4F53
:1046600080818093EA020895089508950895BF9285
:10467000CF92DF92EF92FF920F931F93CF93DF932E
:10468000CDB7DEB72F970FB6F894DEBF0FBECDBF04
:10469000813021F41092970180E004C0809198014C
:1046A0008F3170F50F2EF3E0BF2EF02DB80EB092C3
:1046B000980101E0CB2CD12C80E490E07C01EC1837
:1046C000FD08EC14FD04BCF01B2D0E94DA3A817049
:1046D0009078992324F401978E6F9F6F019661E083
:1046E000610F482F802F0E9473131E5F812F90E06F
:1046F000E816F90654F70E5F033819F70E946C1399
:10470000809198018C30A0F469EE78E1CE01019699
:104710000E94EA3A9F938F931F928AE08F9385E0DD
:104720008F930E940E160F900F900F900F900F9086
:10473000809198018231F8F41F921F921F921F926C
:104740001F921F921F921F921F921F921F921F92E1
:1047500082E491E09F938F9381E08F9382E18F9326
:104760008BE28F930E940E160E9479180FB6F89470
:10477000DEBF0FBECDBF809198018F3179F420E26A
:1047800030E040E850E060E270E080E090E00E94BD
:104790007A14809198018F5F80939801809198019D
:1047A000803208F1809197018F33E8F490E000E8BF
:1047B00010E0A801481B590B2EE130E06EE170E0DB
:1047C0000E947A148091970190E0A801481B590B30
:1047D0002EE130E06EE170E00E947A148091970142
:1047E0008A5F80939701809197018034A0F02EE139
:1047F00030E040E450E06EE170E08FE390E00E9432
:104800007A142FE130E040E450E06FE170E08FE394
:1048100090E00E947A142F960FB6F894DEBF0FBE78
:10482000CDBFDF91CF911F910F91FF90EF90DF905F
:10483000CF90BF900895089508950895089508951C
:10484000ECEBF7E083E499E1918380838CE399E1D9
:104850009383828385E399E1958384838BE299E155
:1048600097838683E4ECF7E087E299E19283818382
:1048700084E18083138282E299E19683858385E1D6
:10488000848317828CE199E19287818786E1808712
:10489000138687E199E19687858787E18487178664
:1048A00082E199E1928B818B88E1808B138A8CE085
:1048B00099E1968B858B89E1848B178A86E099E153
:1048C000928F818F8AE1808F138E80E099E1968F9D
:1048D000858F8BE1848F178E0895CF92DF92EF92B0
:1048E000FF920F931F93CF93DF93CDB7DEB72F9730
:1048F0000FB6F894DEBF0FBECDBF0DB71EB7E09167
:104900009B01F0E0EE0FFF1FE454F84FC080D18010
:10491000C6010E94F13A01962DB73EB7281B390B0C
:104920000FB6F8943EBF0FBE2DBF8DB79EB7019650
:104930007C01B6019F2D0E94EA3A67EF78E1CE0133
:1049400001960E94EA3AFF92EF929F938F931F92F3
:104950008EEF8F931F920E940E1640910901609175
:10496000990170919A01F62EE4ECF7E02DB73EB76D
:10497000295F3F4F0FB6F8943EBF0FBE2DBF24E115
:1049800030E080E05AEFD901A154BE4F9C919B3F8B
:1049900010F4938301C0538348130AC09381DB0151
:1049A000A90FB11DBB2314F4138202C09F0D938382
:1049B0008F5F2F5F3F4F3496883029F764EC77E0A4
:1049C0000E94243787EF92E09F938F931F9282E398
:1049D0008F931F920E940E160F900F900F900F90C2
:1049E0000F900FB6F8941EBF0FBE0DBF2F960FB6D7
:1049F000F894DEBF0FBECDBFDF91CF911F910F9115
:104A0000FF90EF90DF90CF900895109209011092DF
:104A10009A011092990180919B018F5F843018F464
:104A200080939B0102C010929B0180919B010E9488
:104A3000692F089510929A011092990180910901AD
:104A40008F5F883018F48093090102C01092090129
:104A5000E0910901F0E0EE0FFF1FEE0FFF1FEC5396
:104A6000F84F638180919B010E949E2F0895E091F1
:104A70000901F0E0EE0FFF1FEE0FFF1FEC53F84FA0
:104A80006381662349F08091990190919A01019781
:104A900090939A018093990180919B010E949E2F8F
:104AA0000895E0910901F0E0EE0FFF1FEE0FFF1FE8
:104AB000EC53F84F63816A3F48F4809199019091DB
:104AC0009A01019690939A018093990180919B019C
:104AD0000E949E2F0895E0910901F0E0EE0FFF1F64
:104AE000EE0FFF1FEC53F84F4381608180919B01D3
:104AF0000E943E3010929A01109299012FEF80E7A8
:104B000092E0215080409040E1F700C00000E09129
:104B10000901F0E0EE0FFF1FEE0FFF1FEC53F84FFF
:104B2000638180919B010E949E2F0895EF92FF92D6
:104B30000F931F93CF93DF93CDB7DEB72C970FB6AC
:104B4000F894DEBF0FBECDBF0E941F0D00EE12E035
:104B5000F801F4846EE679E1CE0101960E94EA3A0A
:104B60001F92FF929F938F931F920F2EFBE0FF2EB9
:104B7000F02DFF928FEF8F930E940E16F801E584BF
:104B800069E679E1CE0101960E94EA3A1F92EF921E
:104B90009F938F931F92FF928DE68F930E940E1624
:104BA000F801158964E679E1CE0101960E94EA3A9E
:104BB0001F921F939F938F9381E090910A0191110F
:104BC00080E08F931F9285E28F9382E08F930E9403
:104BD0003C161091EF026AE579E1CE0101960E9440
:104BE000EA3A1F921F939F938F9381E090910A015D
:104BF000923009F080E08F931F928EE28F9382E0D3
:104C00008F930E943C161091EE0261E579E1CE018E
:104C100001960E94EA3A1F921F939F938F9381E01F
:104C200090910A01913009F080E08F931F9287E301
:104C30008F9382E08F930E943C160FB6F894DEBFEC
:104C40000FBECDBF29E230E046E750E069E270E0F8
:104C500085E790E00E947A142DE230E046E750E0CC
:104C60006DE270E084E790E00E947A1421E330E086
:104C700046E750E061E370E085E790E00E947A1437
:104C800020E430E046E750E06AE170E086E790E03B
:104C90000E947A142091F102822F90E005970597E7
:104CA00014F0255001C020E0EE24E39400E445E038
:104CB00068E788E00E94B5176CE479E1CE010196BF
:104CC0000E94EA3A9F938F931F9287E38F938EE51A
:104CD0008F930E940E160F900F900F900F900F90D1
:104CE0002C960FB6F894DEBF0FBECDBFDF91CF91EB
:104CF0001F910F91FF90EF900895089580910A0100
:104D00008F5F833018F480930A01089510920A018E
:104D1000089580910A01813049F48091EE02882340
:104D200021F160E081500E94F72F0895823051F404
:104D30008091EF028823C9F081508093EF020E9496
:104D40000D300895811111C08091F5028F3041F02E
:104D5000823159F48FE08093F5020E941F3008954C
:104D60008DE08093F5020E941F30089580910A0122
:104D7000813061F48091EE028F3F41F18F5F883284
:104D800008F488E260E00E94F72F0895823051F421
:104D90008091EF028230D0F48F5F8093EF020E9407
:104DA0000D300895811112C08091F5028D3019F0F7
:104DB0008F3039F008958FE08093F5020E941F3004
:104DC000089582E18093F5020E941F30089580913A
:104DD0000A01813011F40E9431300895E0EFF7E0CC
:104DE00088E999E1918380838DE899E193838283B7
:104DF00081E899E195838483E4EEF7E08FE799E118
:104E00009283818386E0808313828DE799E1968384
:104E1000858387E0848317828BE799E19287818776
:104E200088E0808713860895AF92BF92CF92DF9279
:104E3000EF92FF920F931F93CF93DF93CDB7DEB71F
:104E40002A970FB6F894DEBF0FBECDBFADB6BEB683
:104E5000E0919E01F0E0EE0FFF1FE051F84FC0809F
:104E6000D180C6010E94F13A01962DB73EB7281BAA
:104E7000390B0FB6F8943EBF0FBE2DBF8DB79EB74E
:104E800001967C01B6019F2D0E94EA3A63E779E121
:104E9000CE0101960E94EA3AFF92EF929F938F9380
:104EA0001F928EEF8F931F920E940E160F2EF4EE1C
:104EB000EF2EF7E0FF2EF02DADB7BEB717960FB669
:104EC000F894BEBF0FBEADBF0F2EF6E0CF2ED12C93
:104ED000F02D10E00FEFF601E154FE4F8081F70155
:104EE000838340910B01411313C020919C013091A9
:104EF0009D01B901680F711D772314F4138208C056
:104F00006F3F710519F014F0038302C0820F838391
:104F100064EE77E083E00E9424371F5FBFEFCB1A77
:104F2000DB0A24E0E20EF11C1330A9F60FB6F89468
:104F3000BEBE0FBEADBE2A960FB6F894DEBF0FBE42
:104F4000CDBFDF91CF911F910F91FF90EF90DF9038
:104F5000CF90BF90AF90089510920B0110929D01D9
:104F600010929C0180919E018F5F833018F4809392
:104F70009E0102C010929E0180919E010E94E52F29
:104F8000089510929D0110929C0180910B018F5FFA
:104F9000833018F480930B01089510920B0108954B
:104FA00080910B0190E0FC01EE0FFF1FEE0FFF1F41
:104FB000EC51F84F4381442351F020919C013091F2
:104FC0009D012150310930939D0120939C01880F50
:104FD000991F880F991FFC01EC51F84F6081809157
:104FE0009E010E94B42F089580910B0190E0FC0176
:104FF000EE0FFF1FEE0FFF1FEC51F84F43814F3FA5
:1050000051F020919C0130919D012F5F3F4F3093D3
:105010009D0120939C01880F991F880F991FFC0107
:10502000EC51F84F608180919E010E94B42F089549
:10503000E0910B01F0E0EE0FFF1FEE0FFF1FEC51B0
:10504000F84F4381608180919E010E94CC2F109285
:105050009D0110929C010895EF92FF920F931F9370
:10506000CF93DF9380E00E9455138091E30281305B
:1050700081F482E591E09F938F931F9289E18F9352
:1050800082E08F930E940E160F900F900F900F905A
:105090000F908091E40281110DC080910C018E313E
:1050A00068F480E00E944D1980910C018F5F80931D
:1050B0000C0104C010920C010E944D198091E50270
:1050C0008130F1F486E591E09F938F931F92C7E0C2
:1050D000CF9382E08F930E940E1689E591E09F9313
:1050E0008F931F92CF938EE08F930E940E168DB7F1
:1050F0009EB70A960FB6F8949EBF0FBE8DBF1DC017
:1051000082E291E09F938F931F92C7E0CF9382E05A
:105110008F930E940E1689E591E09F938F931F92C3
:10512000CF9388E08F930E940E168DB79EB70A9694
:105130000FB6F8949EBF0FBE8DBF8091F0028130F4
:1051400089F480919F01873020F48F5F80939F01C5
:1051500073C08F5F8B3018F480939F0105C010924D
:105160009F0102C010929F01E091E2028E2F90E019
:105170008C30910508F058C0FC01EC5CFF4F0C949A
:10518000413969E08CE20E94A2164EC069E08CE2CF
:105190000E940D1749C069E08CE20E94511744C07B
:1051A0008DE591E09F938F931F9287E08F938AE222
:1051B0008F930E940E160F900F900F900F900F90EC
:1051C00033C069E08CE20E9443172EC069E08CE294
:1051D0000E94511785E691E09F938F931F9287E07D
:1051E0008F9380E48F930E940E160F900F900F9074
:1051F0000F900F9019C069E08CE20E94431785E67A
:1052000091E09F938F931F9287E08F9380E48F9319
:105210000E940E160F900F900F900F900F9004C0E9
:1052200069E08CE20E94DD164091E902442321F0FE
:1052300065E08FE60E94F717E5EBF1E0318122810E
:105240008081482F082E000C550B5F938F9387E6C3
:105250003802912D11249595959537FD9395592FE9
:10526000550F452F440F440F450F341B432F032E7A
:10527000000C550B5F933F93492F092E000C550BE3
:105280005F939F932802812D11248595859527FD95
:105290008395382F330F932F990F990F930F291B55
:1052A000422F022E000C550B5F932F93282F082EB0
:1052B000000C330B3F938F938381282F082E000C13
:1052C000330B3F938F9382E491E09F938F9381E020
:1052D0008F9382E18F938BE28F930E940E160E9430
:1052E00079180E94CA379C018DB79EB741960FB6B8
:1052F000F8949EBF0FBE8DBF21153105B1F5CAE2EE
:10530000D1E0DF93CF931F9218E31F9388E18F932F
:105310000E940E16DF93CF931F921F938CE18F9301
:105320000E940E168BE691E09F938F931F921F931E
:1053300080E28F930E940E16DF93CF931F921F93EC
:1053400082E28F930E940E16DF93CF931F921F93DA
:1053500087E28F930E940E168DB79EB749960FB6BF
:10536000F8949EBF0FBE8DBFA3C0C901332324F4A0
:1053700088279927821B930B6CE370E00E942D39DC
:105380008B01EC01E62EF82E332384F48DE691E0B8
:105390009F938F931F9289E38F9387E18F930E944E
:1053A0000E160F900F900F900F900F9099E09E1592
:1053B00008F083C01DEC019F112D11241695169540
:1053C00016951F921F9383E791E09F938F931F92EF
:1053D00088E38F9388E18F930E940E16110F812F1F
:1053E000880F880F180F011B10E08DB79EB7079626
:1053F0000FB6F8949EBF0FBE8DBF1F930F9383E728
:1054000091E09F938F931F9218E31F938CE18F93EA
:105410000E940E168BE691E09F938F931F921F932D
:1054200080E28F930E940E168DB79EB70C960FB632
:10543000F8949EBF0FBE8DBF99E09F1508F054C031
:10544000DDECCD9FD12D1124D695D695D6951F9202
:10545000DF9383E791E09F938F931F9288E38F936D
:1054600082E28F930E940E16DD0F8D2F880F880F1A
:10547000D80FCD1BD0E08DB79EB707960FB6F89426
:105480009EBF0FBE8DBFDF93CF9383E791E09F93C5
:105490008F931F9288E38F9387E28F930E940E165B
:1054A0008DB79EB707960FB6F8949EBF0FBE8DBFFF
:1054B0000E9418380E946C132EC01F921F9283E71F
:1054C00091E09F938F931F9288E38F9388E18F934E
:1054D0000E940E1611278DB79EB707960FB6F89447
:1054E0009EBF0FBE8DBF89CF1F921F9283E791E0B1
:1054F0009F938F931F9288E38F9382E28F930E94F2
:105500000E16DD278DB79EB707960FB6F8949EBF8F
:105510000FBE8DBFB8CFDF91CF911F910F91FF903C
:10552000EF90089588E08093EA0208950E940C3875
:105530000E94DE2B08950E94DD3708950E94CF3728
:1055400008950E94EB3708953F924F925F926F92B9
:105550007F928F929F92AF92BF92CF92DF92EF9203
:10556000FF920F931F93CF93DF93CDB7DEB768976A
:105570000FB6F894DEBF0FBECDBF813009F066C014
:10558000ECE4F2E0108281EB99E19583848311824F
:1055900083E08283A0EEB2E053969C91539793836D
:1055A00091E0968322E02783908724EA39E13587CA
:1055B0002487118699E1928754969C9193878687D8
:1055C00084E0878743C0F601842D11928A95E9F71C
:1055D000F70183814AE0B601082E000C990B0E9466
:1055E0000C3BF70164817581C8010E94EA3AF80119
:1055F00001900020E9F7319791828082B601C801BD
:105600000E94013B1F930F938091A001082E000C74
:10561000990B252D8A159B0509F0232D2F931F9299
:105620007F926F920E943C16FAE07F0E8FEFA81ACD
:10563000B80AE8E0EE0EF11C0F900F900F900F905B
:105640000F900F90F4E17F12BECF1FC00F2EFCE42D
:10565000EF2EF2E0FF2EF02DA12CB12C712C6E015B
:1056600085E1C80ED11C6894442442F88E010F5F76
:105670001F4F0F2EFAE38F2E912CF02D55245394AB
:10568000312C6894662461F89ECF68960FB6F89422
:10569000DEBF0FBECDBFDF91CF911F910F91FF9065
:1056A000EF90DF90CF90BF90AF909F908F907F90C2
:1056B0006F905F904F903F90089508958091A00162
:1056C0008F5F82301CF48093A00108951092A00196
:1056D00008958091A001082E000C990BFC01EE0F9B
:1056E000FF1FEE0FFF1FEE0FFF1FE45BFD4F238137
:1056F000215023834181022E000C330B642F70E074
:105700002617370754F4FC01EE0FFF1FEE0FFF1FA3
:10571000EE0FFF1FE45BFD4F4383880F991F880F37
:10572000991F880F991FFC01E45BFD4F6381609313
:10573000F30286810E941F3208958091A001082EF5
:10574000000C990BFC01EE0FFF1FEE0FFF1FEE0F79
:10575000FF1FE45BFD4F23812F5F23834281022ED5
:10576000000C330B642F70E06217730754F4FC01D4
:10577000EE0FFF1FEE0FFF1FEE0FFF1FE45BFD4F4D
:105780004383880F991F880F991F880F991FFC0169
:10579000E45BFD4F63816093F30286810E941F32B8
:1057A0000895E091A00188E0E802F0011124E45B93
:1057B000FD4F638187810E941F320895E5EBF1E080
:1057C000108211821282138215821482178216822D
:1057D000118610860895009791F02091B9013091BB
:1057E000BA01283E4DEF340750F4843F41E094075E
:1057F00030F4820F931F9093BA018093B9010895FA
:10580000009791F02091BB013091BC01283E4DEFF3
:10581000340750F4843F41E0940730F4820F931F23
:105820009093BC018093BB0108956091B901709180
:10583000BA01AB0146505109423E8DEF580708F0BE
:105840004CC080E001C0A9018A5F9A01265031094D
:10585000223E9DEF3907B8F3681B71097093BA01B6
:105860006093B9019BEA899F812D112486958695C5
:10587000A9F1E5EBF1E09081318160857185A2812C
:10588000B38120E09F5F9A30E1F43F5F603395E79A
:10589000790714F46F5F7F4F3C3359F4AF5FAC333B
:1058A00051F4BF5FB53054F090E030E0A0E0B0E0DC
:1058B00008C090E006C090E030E003C090E030E027
:1058C000A0E02F5F8213DECFE5EBF1E0B383A2838C
:1058D000318390837187608701C0AB016091BB0108
:1058E0007091BC016630710508F449C0483E5D4FB7
:1058F00008F045C09B0180E08A5F265031092630C0
:105900003105D0F7681B71097093BC016093BB012E
:105910009BEA899F812D11248695869581F1E5EB7F
:10592000F1E090813181408551856281738120E071
:105930009150D0F43150413D9AE8590714F041504C
:1059400051093F3F49F4615048F4715050F499E0D7
:105950003BE36BE375E008C099E006C099E03BE3E8
:1059600003C099E03BE36BE32F5F8213E1CFE5EBEC
:10597000F1E0738362833183908351874087089578
:105980008091EB02813049F48091A10181110EC018
:105990005C9A81E08093A1010895811107C08091F4
:1059A000A101813019F45C981092A1010895F99930
:1059B000FECF90E092BD81BD60BDFA9AF99A08953C
:1059C000F999FECF90E092BD81BDF89A80B5089517
:1059D000CF93DF93C82FD72F0E94D72C6D2F81E054
:1059E0008C0F0E94D72CDF91CF9108951F93CF93F6
:1059F000DF93182F81E0810F0E94E02CC82FD0E0A8
:105A0000DC2FCC270000812F0E94E02C9E01280F64
:105A1000311DC901DF91CF911F910895CF92DF927F
:105A2000EF92FF92CF93DF93EC016A017B01BA0101
:105A30000E94E82CB70188279927CE0102960E9480
:105A4000E82CDF91CF91FF90EF90DF90CF900895F9
:105A5000CF92DF92EF92FF92CF93DF93EC01029609
:105A60000E94F62C6C01E12CF12C7601DD24CC2473
:105A70000000CE010E94F62CA7019601280F391FC5
:105A8000411D511DCA01B901DF91CF91FF90EF90E7
:105A9000DF90CF900895EAE7F0E08081806880830E
:105AA00080818160808380818260808380818B7F20
:105AB0008083ECE7F0E080818064808380818F7751
:105AC00080830895ECE7F0E080818E7F8083808181
:105AD000826080838081846080838081877F8083EF
